{
  "_format": "hh-sol-artifact-1",
  "contractName": "OperatorResolver",
  "sourceName": "contracts/OperatorResolver.sol",
  "abi": [
    {
      "anonymous": false,
      "inputs": [
        {
          "indexed": false,
          "internalType": "bytes32",
          "name": "name",
          "type": "bytes32"
        },
        {
          "components": [
            {
              "internalType": "address",
              "name": "implementation",
              "type": "address"
            },
            {
              "internalType": "bytes4",
              "name": "selector",
              "type": "bytes4"
            }
          ],
          "indexed": false,
          "internalType": "struct IOperatorResolver.Operator",
          "name": "destination",
          "type": "tuple"
        }
      ],
      "name": "OperatorImported",
      "type": "event"
    },
    {
      "anonymous": false,
      "inputs": [
        {
          "indexed": true,
          "internalType": "address",
          "name": "previousOwner",
          "type": "address"
        },
        {
          "indexed": true,
          "internalType": "address",
          "name": "newOwner",
          "type": "address"
        }
      ],
      "name": "OwnershipTransferred",
      "type": "event"
    },
    {
      "inputs": [
        {
          "internalType": "bytes32[]",
          "name": "names",
          "type": "bytes32[]"
        },
        {
          "components": [
            {
              "internalType": "address",
              "name": "implementation",
              "type": "address"
            },
            {
              "internalType": "bytes4",
              "name": "selector",
              "type": "bytes4"
            }
          ],
          "internalType": "struct IOperatorResolver.Operator[]",
          "name": "destinations",
          "type": "tuple[]"
        }
      ],
      "name": "areOperatorsImported",
      "outputs": [
        {
          "internalType": "bool",
          "name": "",
          "type": "bool"
        }
      ],
      "stateMutability": "view",
      "type": "function"
    },
    {
      "inputs": [
        {
          "internalType": "bytes32",
          "name": "name",
          "type": "bytes32"
        }
      ],
      "name": "getOperator",
      "outputs": [
        {
          "components": [
            {
              "internalType": "address",
              "name": "implementation",
              "type": "address"
            },
            {
              "internalType": "bytes4",
              "name": "selector",
              "type": "bytes4"
            }
          ],
          "internalType": "struct IOperatorResolver.Operator",
          "name": "",
          "type": "tuple"
        }
      ],
      "stateMutability": "view",
      "type": "function"
    },
    {
      "inputs": [
        {
          "internalType": "bytes32[]",
          "name": "names",
          "type": "bytes32[]"
        },
        {
          "components": [
            {
              "internalType": "address",
              "name": "implementation",
              "type": "address"
            },
            {
              "internalType": "bytes4",
              "name": "selector",
              "type": "bytes4"
            }
          ],
          "internalType": "struct IOperatorResolver.Operator[]",
          "name": "operatorsToImport",
          "type": "tuple[]"
        },
        {
          "internalType": "contract MixinOperatorResolver[]",
          "name": "destinations",
          "type": "address[]"
        }
      ],
      "name": "importOperators",
      "outputs": [],
      "stateMutability": "nonpayable",
      "type": "function"
    },
    {
      "inputs": [],
      "name": "initialize",
      "outputs": [],
      "stateMutability": "nonpayable",
      "type": "function"
    },
    {
      "inputs": [
        {
          "internalType": "bytes32",
          "name": "",
          "type": "bytes32"
        }
      ],
      "name": "operators",
      "outputs": [
        {
          "internalType": "address",
          "name": "implementation",
          "type": "address"
        },
        {
          "internalType": "bytes4",
          "name": "selector",
          "type": "bytes4"
        }
      ],
      "stateMutability": "view",
      "type": "function"
    },
    {
      "inputs": [],
      "name": "owner",
      "outputs": [
        {
          "internalType": "address",
          "name": "",
          "type": "address"
        }
      ],
      "stateMutability": "view",
      "type": "function"
    },
    {
      "inputs": [
        {
          "internalType": "contract MixinOperatorResolver[]",
          "name": "destinations",
          "type": "address[]"
        }
      ],
      "name": "rebuildCaches",
      "outputs": [],
      "stateMutability": "nonpayable",
      "type": "function"
    },
    {
      "inputs": [],
      "name": "renounceOwnership",
      "outputs": [],
      "stateMutability": "nonpayable",
      "type": "function"
    },
    {
      "inputs": [
        {
          "internalType": "bytes32",
          "name": "name",
          "type": "bytes32"
        },
        {
          "internalType": "string",
          "name": "reason",
          "type": "string"
        }
      ],
      "name": "requireAndGetOperator",
      "outputs": [
        {
          "components": [
            {
              "internalType": "address",
              "name": "implementation",
              "type": "address"
            },
            {
              "internalType": "bytes4",
              "name": "selector",
              "type": "bytes4"
            }
          ],
          "internalType": "struct IOperatorResolver.Operator",
          "name": "",
          "type": "tuple"
        }
      ],
      "stateMutability": "view",
      "type": "function"
    },
    {
      "inputs": [
        {
          "internalType": "address",
          "name": "newOwner",
          "type": "address"
        }
      ],
      "name": "transferOwnership",
      "outputs": [],
      "stateMutability": "nonpayable",
      "type": "function"
    }
  ],
  "bytecode": "0x608060405234801561001057600080fd5b50611139806100206000396000f3fe608060405234801561001057600080fd5b50600436106100be5760003560e01c8063a1b0505811610076578063ca83111e1161005b578063ca83111e14610229578063d04eed061461024c578063f2fde38b146102ec57600080fd5b8063a1b050581461017b578063a96a5f941461018e57600080fd5b8063766f7815116100a7578063766f7815146101385780638129fc1c1461014b5780638da5cb5b1461015357600080fd5b806322a782f8146100c3578063715018a61461012e575b600080fd5b6100d66100d1366004610c14565b6102ff565b60408051825173ffffffffffffffffffffffffffffffffffffffff1681526020928301517fffffffff000000000000000000000000000000000000000000000000000000001692810192909252015b60405180910390f35b6101366103c3565b005b610136610146366004610cdc565b610436565b610136610546565b60335460405173ffffffffffffffffffffffffffffffffffffffff9091168152602001610125565b610136610189366004610d63565b610650565b6100d661019c366004610dfd565b60408051808201909152600080825260208201525060009081526065602090815260409182902082518084019093525473ffffffffffffffffffffffffffffffffffffffff8116835274010000000000000000000000000000000000000000900460e01b7fffffffff00000000000000000000000000000000000000000000000000000000169082015290565b61023c610237366004610e16565b6107cc565b6040519015158152602001610125565b61029f61025a366004610dfd565b60656020526000908152604090205473ffffffffffffffffffffffffffffffffffffffff81169074010000000000000000000000000000000000000000900460e01b82565b6040805173ffffffffffffffffffffffffffffffffffffffff90931683527fffffffff00000000000000000000000000000000000000000000000000000000909116602083015201610125565b6101366102fa366004610ea4565b6109a2565b604080518082019091526000808252602082015260008481526065602090815260409182902082518084019093525473ffffffffffffffffffffffffffffffffffffffff81168084527401000000000000000000000000000000000000000090910460e01b7fffffffff000000000000000000000000000000000000000000000000000000001691830191909152849084906103b85760405162461bcd60e51b81526004016103af929190610ec8565b60405180910390fd5b509095945050505050565b60335473ffffffffffffffffffffffffffffffffffffffff16331461042a5760405162461bcd60e51b815260206004820181905260248201527f4f776e61626c653a2063616c6c6572206973206e6f7420746865206f776e657260448201526064016103af565b6104346000610a97565b565b60335473ffffffffffffffffffffffffffffffffffffffff16331461049d5760405162461bcd60e51b815260206004820181905260248201527f4f776e61626c653a2063616c6c6572206973206e6f7420746865206f776e657260448201526064016103af565b60005b81811015610541578282828181106104ba576104ba610f15565b90506020020160208101906104cf9190610ea4565b73ffffffffffffffffffffffffffffffffffffffff1663741853606040518163ffffffff1660e01b8152600401600060405180830381600087803b15801561051657600080fd5b505af115801561052a573d6000803e3d6000fd5b50505050808061053990610f44565b9150506104a0565b505050565b600054610100900460ff166105615760005460ff1615610565565b303b155b6105d75760405162461bcd60e51b815260206004820152602e60248201527f496e697469616c697a61626c653a20636f6e747261637420697320616c72656160448201527f647920696e697469616c697a656400000000000000000000000000000000000060648201526084016103af565b600054610100900460ff1615801561061657600080547fffffffffffffffffffffffffffffffffffffffffffffffffffffffffffff0000166101011790555b61061e610b0e565b801561064d57600080547fffffffffffffffffffffffffffffffffffffffffffffffffffffffffffff00ff1690555b50565b60335473ffffffffffffffffffffffffffffffffffffffff1633146106b75760405162461bcd60e51b815260206004820181905260248201527f4f776e61626c653a2063616c6c6572206973206e6f7420746865206f776e657260448201526064016103af565b8483146107065760405162461bcd60e51b815260206004820152601c60248201527f4f523a20494e505554535f4c454e4754485f4d5553545f4d415443480000000060448201526064016103af565b60003660005b878110156107b75788888281811061072657610726610f15565b90506020020135925086868281811061074157610741610f15565b9050604002019150816065600085815260200190815260200160002081816107699190610fd1565b9050507f965ee37a82db5b0bccc3b77027a2e688cfda88c85081673625022f438901f090838360405161079d929190611079565b60405180910390a1806107af81610f44565b91505061070c565b506107c28484610436565b5050505050505050565b60008382811461081e5760405162461bcd60e51b815260206004820152601c60248201527f4f523a20494e505554535f4c454e4754485f4d5553545f4d415443480000000060448201526064016103af565b60005b818110156109935784848281811061083b5761083b610f15565b6108519260206040909202019081019150610ea4565b73ffffffffffffffffffffffffffffffffffffffff166065600089898581811061087d5761087d610f15565b602090810292909201358352508101919091526040016000205473ffffffffffffffffffffffffffffffffffffffff1614158061097157508484828181106108c7576108c7610f15565b90506040020160200160208101906108df91906110e6565b7fffffffff00000000000000000000000000000000000000000000000000000000166065600089898581811061091757610917610f15565b602090810292909201358352508101919091526040016000205474010000000000000000000000000000000000000000900460e01b7fffffffff000000000000000000000000000000000000000000000000000000001614155b156109815760009250505061099a565b8061098b81610f44565b915050610821565b5060019150505b949350505050565b60335473ffffffffffffffffffffffffffffffffffffffff163314610a095760405162461bcd60e51b815260206004820181905260248201527f4f776e61626c653a2063616c6c6572206973206e6f7420746865206f776e657260448201526064016103af565b73ffffffffffffffffffffffffffffffffffffffff8116610a925760405162461bcd60e51b815260206004820152602660248201527f4f776e61626c653a206e6577206f776e657220697320746865207a65726f206160448201527f646472657373000000000000000000000000000000000000000000000000000060648201526084016103af565b61064d815b6033805473ffffffffffffffffffffffffffffffffffffffff8381167fffffffffffffffffffffffff0000000000000000000000000000000000000000831681179093556040519116919082907f8be0079c531659141344cd1fd0a4f28419497f9722a3daafe3b4186f6b6457e090600090a35050565b600054610100900460ff16610b8b5760405162461bcd60e51b815260206004820152602b60248201527f496e697469616c697a61626c653a20636f6e7472616374206973206e6f74206960448201527f6e697469616c697a696e6700000000000000000000000000000000000000000060648201526084016103af565b610434600054610100900460ff16610c0b5760405162461bcd60e51b815260206004820152602b60248201527f496e697469616c697a61626c653a20636f6e7472616374206973206e6f74206960448201527f6e697469616c697a696e6700000000000000000000000000000000000000000060648201526084016103af565b61043433610a97565b600080600060408486031215610c2957600080fd5b83359250602084013567ffffffffffffffff80821115610c4857600080fd5b818601915086601f830112610c5c57600080fd5b813581811115610c6b57600080fd5b876020828501011115610c7d57600080fd5b6020830194508093505050509250925092565b60008083601f840112610ca257600080fd5b50813567ffffffffffffffff811115610cba57600080fd5b6020830191508360208260051b8501011115610cd557600080fd5b9250929050565b60008060208385031215610cef57600080fd5b823567ffffffffffffffff811115610d0657600080fd5b610d1285828601610c90565b90969095509350505050565b60008083601f840112610d3057600080fd5b50813567ffffffffffffffff811115610d4857600080fd5b6020830191508360208260061b8501011115610cd557600080fd5b60008060008060008060608789031215610d7c57600080fd5b863567ffffffffffffffff80821115610d9457600080fd5b610da08a838b01610c90565b90985096506020890135915080821115610db957600080fd5b610dc58a838b01610d1e565b90965094506040890135915080821115610dde57600080fd5b50610deb89828a01610c90565b979a9699509497509295939492505050565b600060208284031215610e0f57600080fd5b5035919050565b60008060008060408587031215610e2c57600080fd5b843567ffffffffffffffff80821115610e4457600080fd5b610e5088838901610c90565b90965094506020870135915080821115610e6957600080fd5b50610e7687828801610d1e565b95989497509550505050565b73ffffffffffffffffffffffffffffffffffffffff8116811461064d57600080fd5b600060208284031215610eb657600080fd5b8135610ec181610e82565b9392505050565b60208152816020820152818360408301376000818301604090810191909152601f9092017fffffffffffffffffffffffffffffffffffffffffffffffffffffffffffffffe0160101919050565b7f4e487b7100000000000000000000000000000000000000000000000000000000600052603260045260246000fd5b60007fffffffffffffffffffffffffffffffffffffffffffffffffffffffffffffffff8203610f9c577f4e487b7100000000000000000000000000000000000000000000000000000000600052601160045260246000fd5b5060010190565b7fffffffff000000000000000000000000000000000000000000000000000000008116811461064d57600080fd5b8135610fdc81610e82565b73ffffffffffffffffffffffffffffffffffffffff811690508154817fffffffffffffffffffffffff00000000000000000000000000000000000000008216178355602084013561102c81610fa3565b77ffffffff00000000000000000000000000000000000000008160401c16837fffffffffffffffff0000000000000000000000000000000000000000000000008416171784555050505050565b82815260608101823561108b81610e82565b73ffffffffffffffffffffffffffffffffffffffff811660208401525060208301356110b681610fa3565b7fffffffff0000000000000000000000000000000000000000000000000000000081166040840152509392505050565b6000602082840312156110f857600080fd5b8135610ec181610fa356fea2646970667358221220a86c6549c6549395010d6ec2d02efc45ce2c209e94b8a4981481f326a92834a064736f6c634300080d0033",
  "linkReferences": {},
  "deployedLinkReferences": {}
}