{
  "_format": "hh-sol-artifact-1",
  "contractName": "ZoneCapitalNFT",
  "sourceName": "contracts/ZoneCapitalNFT.sol",
  "abi": [
    {
      "anonymous": false,
      "inputs": [
        {
          "indexed": true,
          "internalType": "address",
          "name": "owner",
          "type": "address"
        },
        {
          "indexed": true,
          "internalType": "address",
          "name": "approved",
          "type": "address"
        },
        {
          "indexed": true,
          "internalType": "uint256",
          "name": "tokenId",
          "type": "uint256"
        }
      ],
      "name": "Approval",
      "type": "event"
    },
    {
      "anonymous": false,
      "inputs": [
        {
          "indexed": true,
          "internalType": "address",
          "name": "owner",
          "type": "address"
        },
        {
          "indexed": true,
          "internalType": "address",
          "name": "operator",
          "type": "address"
        },
        {
          "indexed": false,
          "internalType": "bool",
          "name": "approved",
          "type": "bool"
        }
      ],
      "name": "ApprovalForAll",
      "type": "event"
    },
    {
      "anonymous": false,
      "inputs": [
        {
          "indexed": false,
          "internalType": "address",
          "name": "newFactory",
          "type": "address"
        }
      ],
      "name": "FactoryAdded",
      "type": "event"
    },
    {
      "anonymous": false,
      "inputs": [
        {
          "indexed": false,
          "internalType": "address",
          "name": "oldFactory",
          "type": "address"
        }
      ],
      "name": "FactoryRemoved",
      "type": "event"
    },
    {
      "anonymous": false,
      "inputs": [
        {
          "indexed": true,
          "internalType": "address",
          "name": "previousOwner",
          "type": "address"
        },
        {
          "indexed": true,
          "internalType": "address",
          "name": "newOwner",
          "type": "address"
        }
      ],
      "name": "OwnershipTransferred",
      "type": "event"
    },
    {
      "anonymous": false,
      "inputs": [
        {
          "indexed": true,
          "internalType": "address",
          "name": "from",
          "type": "address"
        },
        {
          "indexed": true,
          "internalType": "address",
          "name": "to",
          "type": "address"
        },
        {
          "indexed": true,
          "internalType": "uint256",
          "name": "tokenId",
          "type": "uint256"
        }
      ],
      "name": "Transfer",
      "type": "event"
    },
    {
      "inputs": [
        {
          "internalType": "address",
          "name": "_factory",
          "type": "address"
        }
      ],
      "name": "addFactory",
      "outputs": [],
      "stateMutability": "nonpayable",
      "type": "function"
    },
    {
      "inputs": [
        {
          "internalType": "address",
          "name": "to",
          "type": "address"
        },
        {
          "internalType": "uint256",
          "name": "tokenId",
          "type": "uint256"
        }
      ],
      "name": "approve",
      "outputs": [],
      "stateMutability": "nonpayable",
      "type": "function"
    },
    {
      "inputs": [
        {
          "internalType": "address",
          "name": "owner",
          "type": "address"
        }
      ],
      "name": "balanceOf",
      "outputs": [
        {
          "internalType": "uint256",
          "name": "",
          "type": "uint256"
        }
      ],
      "stateMutability": "view",
      "type": "function"
    },
    {
      "inputs": [],
      "name": "baseUri",
      "outputs": [
        {
          "internalType": "string",
          "name": "",
          "type": "string"
        }
      ],
      "stateMutability": "view",
      "type": "function"
    },
    {
      "inputs": [
        {
          "internalType": "address",
          "name": "_owner",
          "type": "address"
        },
        {
          "internalType": "uint256",
          "name": "_tokenId",
          "type": "uint256"
        }
      ],
      "name": "burn",
      "outputs": [],
      "stateMutability": "nonpayable",
      "type": "function"
    },
    {
      "inputs": [],
      "name": "contractUri",
      "outputs": [
        {
          "internalType": "string",
          "name": "",
          "type": "string"
        }
      ],
      "stateMutability": "view",
      "type": "function"
    },
    {
      "inputs": [
        {
          "internalType": "uint256",
          "name": "tokenId",
          "type": "uint256"
        }
      ],
      "name": "getApproved",
      "outputs": [
        {
          "internalType": "address",
          "name": "",
          "type": "address"
        }
      ],
      "stateMutability": "view",
      "type": "function"
    },
    {
      "inputs": [],
      "name": "initialize",
      "outputs": [],
      "stateMutability": "nonpayable",
      "type": "function"
    },
    {
      "inputs": [
        {
          "internalType": "address",
          "name": "owner",
          "type": "address"
        },
        {
          "internalType": "address",
          "name": "operator",
          "type": "address"
        }
      ],
      "name": "isApprovedForAll",
      "outputs": [
        {
          "internalType": "bool",
          "name": "",
          "type": "bool"
        }
      ],
      "stateMutability": "view",
      "type": "function"
    },
    {
      "inputs": [],
      "name": "isRevealed",
      "outputs": [
        {
          "internalType": "bool",
          "name": "",
          "type": "bool"
        }
      ],
      "stateMutability": "view",
      "type": "function"
    },
    {
      "inputs": [
        {
          "internalType": "uint256",
          "name": "",
          "type": "uint256"
        }
      ],
      "name": "lastOwnerBeforeBurn",
      "outputs": [
        {
          "internalType": "address",
          "name": "",
          "type": "address"
        }
      ],
      "stateMutability": "view",
      "type": "function"
    },
    {
      "inputs": [
        {
          "internalType": "address",
          "name": "_owner",
          "type": "address"
        },
        {
          "internalType": "uint256",
          "name": "_replicatedTokenId",
          "type": "uint256"
        }
      ],
      "name": "mint",
      "outputs": [
        {
          "internalType": "uint256",
          "name": "",
          "type": "uint256"
        }
      ],
      "stateMutability": "nonpayable",
      "type": "function"
    },
    {
      "inputs": [],
      "name": "name",
      "outputs": [
        {
          "internalType": "string",
          "name": "",
          "type": "string"
        }
      ],
      "stateMutability": "view",
      "type": "function"
    },
    {
      "inputs": [
        {
          "internalType": "uint256",
          "name": "",
          "type": "uint256"
        }
      ],
      "name": "originalAsset",
      "outputs": [
        {
          "internalType": "uint256",
          "name": "",
          "type": "uint256"
        }
      ],
      "stateMutability": "view",
      "type": "function"
    },
    {
      "inputs": [
        {
          "internalType": "uint256",
          "name": "_tokenId",
          "type": "uint256"
        }
      ],
      "name": "originalOwner",
      "outputs": [
        {
          "internalType": "address",
          "name": "",
          "type": "address"
        }
      ],
      "stateMutability": "view",
      "type": "function"
    },
    {
      "inputs": [],
      "name": "owner",
      "outputs": [
        {
          "internalType": "address",
          "name": "",
          "type": "address"
        }
      ],
      "stateMutability": "view",
      "type": "function"
    },
    {
      "inputs": [
        {
          "internalType": "uint256",
          "name": "tokenId",
          "type": "uint256"
        }
      ],
      "name": "ownerOf",
      "outputs": [
        {
          "internalType": "address",
          "name": "",
          "type": "address"
        }
      ],
      "stateMutability": "view",
      "type": "function"
    },
    {
      "inputs": [
        {
          "internalType": "address",
          "name": "_factory",
          "type": "address"
        }
      ],
      "name": "removeFactory",
      "outputs": [],
      "stateMutability": "nonpayable",
      "type": "function"
    },
    {
      "inputs": [],
      "name": "renounceOwnership",
      "outputs": [],
      "stateMutability": "nonpayable",
      "type": "function"
    },
    {
      "inputs": [
        {
          "internalType": "address",
          "name": "from",
          "type": "address"
        },
        {
          "internalType": "address",
          "name": "to",
          "type": "address"
        },
        {
          "internalType": "uint256",
          "name": "tokenId",
          "type": "uint256"
        }
      ],
      "name": "safeTransferFrom",
      "outputs": [],
      "stateMutability": "nonpayable",
      "type": "function"
    },
    {
      "inputs": [
        {
          "internalType": "address",
          "name": "from",
          "type": "address"
        },
        {
          "internalType": "address",
          "name": "to",
          "type": "address"
        },
        {
          "internalType": "uint256",
          "name": "tokenId",
          "type": "uint256"
        },
        {
          "internalType": "bytes",
          "name": "_data",
          "type": "bytes"
        }
      ],
      "name": "safeTransferFrom",
      "outputs": [],
      "stateMutability": "nonpayable",
      "type": "function"
    },
    {
      "inputs": [
        {
          "internalType": "address",
          "name": "operator",
          "type": "address"
        },
        {
          "internalType": "bool",
          "name": "approved",
          "type": "bool"
        }
      ],
      "name": "setApprovalForAll",
      "outputs": [],
      "stateMutability": "nonpayable",
      "type": "function"
    },
    {
      "inputs": [
        {
          "internalType": "string",
          "name": "_baseUri",
          "type": "string"
        }
      ],
      "name": "setBaseURI",
      "outputs": [],
      "stateMutability": "nonpayable",
      "type": "function"
    },
    {
      "inputs": [
        {
          "internalType": "string",
          "name": "_newUri",
          "type": "string"
        }
      ],
      "name": "setContractURI",
      "outputs": [],
      "stateMutability": "nonpayable",
      "type": "function"
    },
    {
      "inputs": [
        {
          "internalType": "bool",
          "name": "_isRevealed",
          "type": "bool"
        }
      ],
      "name": "setIsRevealed",
      "outputs": [],
      "stateMutability": "nonpayable",
      "type": "function"
    },
    {
      "inputs": [
        {
          "internalType": "string",
          "name": "_newUri",
          "type": "string"
        }
      ],
      "name": "setUnrevealedTokenURI",
      "outputs": [],
      "stateMutability": "nonpayable",
      "type": "function"
    },
    {
      "inputs": [
        {
          "internalType": "address",
          "name": "",
          "type": "address"
        }
      ],
      "name": "supportedFactories",
      "outputs": [
        {
          "internalType": "bool",
          "name": "",
          "type": "bool"
        }
      ],
      "stateMutability": "view",
      "type": "function"
    },
    {
      "inputs": [
        {
          "internalType": "bytes4",
          "name": "interfaceId",
          "type": "bytes4"
        }
      ],
      "name": "supportsInterface",
      "outputs": [
        {
          "internalType": "bool",
          "name": "",
          "type": "bool"
        }
      ],
      "stateMutability": "view",
      "type": "function"
    },
    {
      "inputs": [],
      "name": "symbol",
      "outputs": [
        {
          "internalType": "string",
          "name": "",
          "type": "string"
        }
      ],
      "stateMutability": "view",
      "type": "function"
    },
    {
      "inputs": [
        {
          "internalType": "uint256",
          "name": "index",
          "type": "uint256"
        }
      ],
      "name": "tokenByIndex",
      "outputs": [
        {
          "internalType": "uint256",
          "name": "",
          "type": "uint256"
        }
      ],
      "stateMutability": "view",
      "type": "function"
    },
    {
      "inputs": [
        {
          "internalType": "address",
          "name": "owner",
          "type": "address"
        },
        {
          "internalType": "uint256",
          "name": "index",
          "type": "uint256"
        }
      ],
      "name": "tokenOfOwnerByIndex",
      "outputs": [
        {
          "internalType": "uint256",
          "name": "",
          "type": "uint256"
        }
      ],
      "stateMutability": "view",
      "type": "function"
    },
    {
      "inputs": [
        {
          "internalType": "uint256",
          "name": "_tokenId",
          "type": "uint256"
        }
      ],
      "name": "tokenURI",
      "outputs": [
        {
          "internalType": "string",
          "name": "",
          "type": "string"
        }
      ],
      "stateMutability": "view",
      "type": "function"
    },
    {
      "inputs": [],
      "name": "totalSupply",
      "outputs": [
        {
          "internalType": "uint256",
          "name": "",
          "type": "uint256"
        }
      ],
      "stateMutability": "view",
      "type": "function"
    },
    {
      "inputs": [
        {
          "internalType": "address",
          "name": "from",
          "type": "address"
        },
        {
          "internalType": "address",
          "name": "to",
          "type": "address"
        },
        {
          "internalType": "uint256",
          "name": "tokenId",
          "type": "uint256"
        }
      ],
      "name": "transferFrom",
      "outputs": [],
      "stateMutability": "nonpayable",
      "type": "function"
    },
    {
      "inputs": [
        {
          "internalType": "address",
          "name": "newOwner",
          "type": "address"
        }
      ],
      "name": "transferOwnership",
      "outputs": [],
      "stateMutability": "nonpayable",
      "type": "function"
    },
    {
      "inputs": [],
      "name": "unrevealedTokenUri",
      "outputs": [
        {
          "internalType": "string",
          "name": "",
          "type": "string"
        }
      ],
      "stateMutability": "view",
      "type": "function"
    }
  ],
  "bytecode": "0x608060405234801561001057600080fd5b50614d6a806100206000396000f3fe608060405234801561001057600080fd5b506004361061021c5760003560e01c806355f804b3116101255780639abc8320116100ad578063c0e24d5e1161007c578063c0e24d5e14610637578063c87b56dd14610655578063de05051c14610685578063e985e9c5146106b5578063f2fde38b146106e55761021c565b80639abc8320146105c55780639dc29fac146105e3578063a22cb465146105ff578063b88d4fde1461061b5761021c565b80638129fc1c116100f45780638129fc1c14610547578063820de0c5146105515780638da5cb5b1461056d578063938e3d7b1461058b57806395d89b41146105a75761021c565b806355f804b3146104c15780636352211e146104dd57806370a082311461050d578063715018a61461053d5761021c565b80632f745c59116101a857806349a5980a1161017757806349a5980a1461040b5780634b37c73f146104275780634c37043c146104435780634f6ccce71461047357806354214f69146104a35761021c565b80632f745c591461035f57806340bb154d1461038f57806340c10f19146103bf57806342842e0e146103ef5761021c565b8063095ea7b3116101ef578063095ea7b3146102bd5780630c99dafa146102d957806318160ddd1461030957806323b872dd1461032757806329ce1ec5146103435761021c565b806301ffc9a71461022157806306c536ab1461025157806306fdde031461026f578063081812fc1461028d575b600080fd5b61023b60048036038101906102369190613503565b610701565b604051610248919061354b565b60405180910390f35b61025961077b565b60405161026691906135ff565b60405180910390f35b610277610809565b60405161028491906135ff565b60405180910390f35b6102a760048036038101906102a29190613657565b61089b565b6040516102b491906136c5565b60405180910390f35b6102d760048036038101906102d2919061370c565b610920565b005b6102f360048036038101906102ee9190613657565b610a37565b60405161030091906136c5565b60405180910390f35b610311610a6b565b60405161031e919061375b565b60405180910390f35b610341600480360381019061033c9190613776565b610a78565b005b61035d600480360381019061035891906137c9565b610ad8565b005b6103796004803603810190610374919061370c565b610c55565b604051610386919061375b565b60405180910390f35b6103a960048036038101906103a49190613657565b610cfa565b6040516103b691906136c5565b60405180910390f35b6103d960048036038101906103d4919061370c565b610d80565b6040516103e6919061375b565b60405180910390f35b61040960048036038101906104049190613776565b610f18565b005b61042560048036038101906104209190613822565b610f38565b005b610441600480360381019061043c91906137c9565b610fd2565b005b61045d60048036038101906104589190613657565b61116c565b60405161046a919061375b565b60405180910390f35b61048d60048036038101906104889190613657565b611185565b60405161049a919061375b565b60405180910390f35b6104ab6111f6565b6040516104b8919061354b565b60405180910390f35b6104db60048036038101906104d69190613984565b61120a565b005b6104f760048036038101906104f29190613657565b6112e4565b60405161050491906136c5565b60405180910390f35b610527600480360381019061052291906137c9565b611395565b604051610534919061375b565b60405180910390f35b61054561144c565b005b61054f6114d4565b005b61056b60048036038101906105669190613984565b611634565b005b61057561170e565b60405161058291906136c5565b60405180910390f35b6105a560048036038101906105a09190613984565b611738565b005b6105af6117ce565b6040516105bc91906135ff565b60405180910390f35b6105cd611860565b6040516105da91906135ff565b60405180910390f35b6105fd60048036038101906105f8919061370c565b6118ee565b005b610619600480360381019061061491906139cd565b611a54565b005b61063560048036038101906106309190613aae565b611a6a565b005b61063f611acc565b60405161064c91906135ff565b60405180910390f35b61066f600480360381019061066a9190613657565b611b5a565b60405161067c91906135ff565b60405180910390f35b61069f600480360381019061069a91906137c9565b611c5d565b6040516106ac919061354b565b60405180910390f35b6106cf60048036038101906106ca9190613b31565b611c7d565b6040516106dc919061354b565b60405180910390f35b6106ff60048036038101906106fa91906137c9565b611d11565b005b60007f780e9d63000000000000000000000000000000000000000000000000000000007bffffffffffffffffffffffffffffffffffffffffffffffffffffffff1916827bffffffffffffffffffffffffffffffffffffffffffffffffffffffff19161480610774575061077382611e08565b5b9050919050565b60fe805461078890613ba0565b80601f01602080910402602001604051908101604052809291908181526020018280546107b490613ba0565b80156108015780601f106107d657610100808354040283529160200191610801565b820191906000526020600020905b8154815290600101906020018083116107e457829003601f168201915b505050505081565b60606065805461081890613ba0565b80601f016020809104026020016040519081016040528092919081815260200182805461084490613ba0565b80156108915780601f1061086657610100808354040283529160200191610891565b820191906000526020600020905b81548152906001019060200180831161087457829003601f168201915b5050505050905090565b60006108a682611eea565b6108e5576040517f08c379a00000000000000000000000000000000000000000000000000000000081526004016108dc90613c43565b60405180910390fd5b6069600083815260200190815260200160002060009054906101000a900473ffffffffffffffffffffffffffffffffffffffff169050919050565b600061092b826112e4565b90508073ffffffffffffffffffffffffffffffffffffffff168373ffffffffffffffffffffffffffffffffffffffff160361099b576040517f08c379a000000000000000000000000000000000000000000000000000000000815260040161099290613cd5565b60405180910390fd5b8073ffffffffffffffffffffffffffffffffffffffff166109ba611f56565b73ffffffffffffffffffffffffffffffffffffffff1614806109e957506109e8816109e3611f56565b611c7d565b5b610a28576040517f08c379a0000000000000000000000000000000000000000000000000000000008152600401610a1f90613d67565b60405180910390fd5b610a328383611f5e565b505050565b6101016020528060005260406000206000915054906101000a900473ffffffffffffffffffffffffffffffffffffffff1681565b6000609980549050905090565b610a89610a83611f56565b82612017565b610ac8576040517f08c379a0000000000000000000000000000000000000000000000000000000008152600401610abf90613df9565b60405180910390fd5b610ad38383836120f5565b505050565b610ae0611f56565b73ffffffffffffffffffffffffffffffffffffffff16610afe61170e565b73ffffffffffffffffffffffffffffffffffffffff1614610b54576040517f08c379a0000000000000000000000000000000000000000000000000000000008152600401610b4b90613e65565b60405180910390fd5b600073ffffffffffffffffffffffffffffffffffffffff168173ffffffffffffffffffffffffffffffffffffffff1603610bc3576040517f08c379a0000000000000000000000000000000000000000000000000000000008152600401610bba90613ed1565b60405180910390fd5b600160fb60008373ffffffffffffffffffffffffffffffffffffffff1673ffffffffffffffffffffffffffffffffffffffff16815260200190815260200160002060006101000a81548160ff0219169083151502179055507f6fdc0147105e43e21da80a75b42d0fd464060d5e1a34b0cefbf0b4ccfc2e36a181604051610c4a91906136c5565b60405180910390a150565b6000610c6083611395565b8210610ca1576040517f08c379a0000000000000000000000000000000000000000000000000000000008152600401610c9890613f63565b60405180910390fd5b609760008473ffffffffffffffffffffffffffffffffffffffff1673ffffffffffffffffffffffffffffffffffffffff168152602001908152602001600020600083815260200190815260200160002054905092915050565b600080610100600084815260200190815260200160002054905060008114610d7557610d2581611eea565b610d6357610101600082815260200190815260200160002060009054906101000a900473ffffffffffffffffffffffffffffffffffffffff16610d6d565b610d6c816112e4565b5b915050610d7b565b60009150505b919050565b600060fb60003373ffffffffffffffffffffffffffffffffffffffff1673ffffffffffffffffffffffffffffffffffffffff16815260200190815260200160002060009054906101000a900460ff16610e0e576040517f08c379a0000000000000000000000000000000000000000000000000000000008152600401610e0590613fcf565b60405180910390fd5b610e1860fc61235b565b6000610e2460fc612371565b9050610e30848261237f565b60008303610e415780915050610f12565b610e4a83611eea565b610e89576040517f08c379a0000000000000000000000000000000000000000000000000000000008152600401610e809061403b565b60405180910390fd5b828103610ecb576040517f08c379a0000000000000000000000000000000000000000000000000000000008152600401610ec2906140a7565b60405180910390fd5b6000610100600085815260200190815260200160002054905060008103610ef25783610ef4565b805b61010060008481526020019081526020016000208190555081925050505b92915050565b610f3383838360405180602001604052806000815250611a6a565b505050565b610f40611f56565b73ffffffffffffffffffffffffffffffffffffffff16610f5e61170e565b73ffffffffffffffffffffffffffffffffffffffff1614610fb4576040517f08c379a0000000000000000000000000000000000000000000000000000000008152600401610fab90613e65565b60405180910390fd5b8061010260006101000a81548160ff02191690831515021790555050565b610fda611f56565b73ffffffffffffffffffffffffffffffffffffffff16610ff861170e565b73ffffffffffffffffffffffffffffffffffffffff161461104e576040517f08c379a000000000000000000000000000000000000000000000000000000000815260040161104590613e65565b60405180910390fd5b60fb60008273ffffffffffffffffffffffffffffffffffffffff1673ffffffffffffffffffffffffffffffffffffffff16815260200190815260200160002060009054906101000a900460ff166110da576040517f08c379a00000000000000000000000000000000000000000000000000000000081526004016110d190614113565b60405180910390fd5b600060fb60008373ffffffffffffffffffffffffffffffffffffffff1673ffffffffffffffffffffffffffffffffffffffff16815260200190815260200160002060006101000a81548160ff0219169083151502179055507fafa2737b2090fa39c66b7348625f0c03726240f724defbc6216d679506f944418160405161116191906136c5565b60405180910390a150565b6101006020528060005260406000206000915090505481565b600061118f610a6b565b82106111d0576040517f08c379a00000000000000000000000000000000000000000000000000000000081526004016111c7906141a5565b60405180910390fd5b609982815481106111e4576111e36141c5565b5b90600052602060002001549050919050565b61010260009054906101000a900460ff1681565b611212611f56565b73ffffffffffffffffffffffffffffffffffffffff1661123061170e565b73ffffffffffffffffffffffffffffffffffffffff1614611286576040517f08c379a000000000000000000000000000000000000000000000000000000000815260040161127d90613e65565b60405180910390fd5b60008151036112ca576040517f08c379a00000000000000000000000000000000000000000000000000000000081526004016112c190614240565b60405180910390fd5b8060fd90805190602001906112e09291906133f4565b5050565b6000806067600084815260200190815260200160002060009054906101000a900473ffffffffffffffffffffffffffffffffffffffff169050600073ffffffffffffffffffffffffffffffffffffffff168173ffffffffffffffffffffffffffffffffffffffff160361138c576040517f08c379a0000000000000000000000000000000000000000000000000000000008152600401611383906142d2565b60405180910390fd5b80915050919050565b60008073ffffffffffffffffffffffffffffffffffffffff168273ffffffffffffffffffffffffffffffffffffffff1603611405576040517f08c379a00000000000000000000000000000000000000000000000000000000081526004016113fc90614364565b60405180910390fd5b606860008373ffffffffffffffffffffffffffffffffffffffff1673ffffffffffffffffffffffffffffffffffffffff168152602001908152602001600020549050919050565b611454611f56565b73ffffffffffffffffffffffffffffffffffffffff1661147261170e565b73ffffffffffffffffffffffffffffffffffffffff16146114c8576040517f08c379a00000000000000000000000000000000000000000000000000000000081526004016114bf90613e65565b60405180910390fd5b6114d2600061239d565b565b600060019054906101000a900460ff166114fc5760008054906101000a900460ff1615611505565b611504612463565b5b611544576040517f08c379a000000000000000000000000000000000000000000000000000000000815260040161153b906143f6565b60405180910390fd5b60008060019054906101000a900460ff161590508015611594576001600060016101000a81548160ff02191690831515021790555060016000806101000a81548160ff0219169083151502179055505b6116086040518060400160405280600f81526020017f5a6f6e654361706974616c204e465400000000000000000000000000000000008152506040518060400160405280600e81526020017f5a6f6e654361706974616c4e4654000000000000000000000000000000000000815250612474565b6116106124d1565b80156116315760008060016101000a81548160ff0219169083151502179055505b50565b61163c611f56565b73ffffffffffffffffffffffffffffffffffffffff1661165a61170e565b73ffffffffffffffffffffffffffffffffffffffff16146116b0576040517f08c379a00000000000000000000000000000000000000000000000000000000081526004016116a790613e65565b60405180910390fd5b60008151036116f4576040517f08c379a00000000000000000000000000000000000000000000000000000000081526004016116eb90614240565b60405180910390fd5b8060fe908051906020019061170a9291906133f4565b5050565b600060c960009054906101000a900473ffffffffffffffffffffffffffffffffffffffff16905090565b611740611f56565b73ffffffffffffffffffffffffffffffffffffffff1661175e61170e565b73ffffffffffffffffffffffffffffffffffffffff16146117b4576040517f08c379a00000000000000000000000000000000000000000000000000000000081526004016117ab90613e65565b60405180910390fd5b8060ff90805190602001906117ca9291906133f4565b5050565b6060606680546117dd90613ba0565b80601f016020809104026020016040519081016040528092919081815260200182805461180990613ba0565b80156118565780601f1061182b57610100808354040283529160200191611856565b820191906000526020600020905b81548152906001019060200180831161183957829003601f168201915b5050505050905090565b60fd805461186d90613ba0565b80601f016020809104026020016040519081016040528092919081815260200182805461189990613ba0565b80156118e65780601f106118bb576101008083540402835291602001916118e6565b820191906000526020600020905b8154815290600101906020018083116118c957829003601f168201915b505050505081565b60fb60003373ffffffffffffffffffffffffffffffffffffffff1673ffffffffffffffffffffffffffffffffffffffff16815260200190815260200160002060009054906101000a900460ff1661197a576040517f08c379a000000000000000000000000000000000000000000000000000000000815260040161197190613fcf565b60405180910390fd5b8181611985816112e4565b73ffffffffffffffffffffffffffffffffffffffff168273ffffffffffffffffffffffffffffffffffffffff16146119f2576040517f08c379a00000000000000000000000000000000000000000000000000000000081526004016119e990614462565b60405180910390fd5b83610101600085815260200190815260200160002060006101000a81548173ffffffffffffffffffffffffffffffffffffffff021916908373ffffffffffffffffffffffffffffffffffffffff160217905550611a4e8361252a565b50505050565b611a66611a5f611f56565b8383612647565b5050565b611a7b611a75611f56565b83612017565b611aba576040517f08c379a0000000000000000000000000000000000000000000000000000000008152600401611ab190613df9565b60405180910390fd5b611ac6848484846127b3565b50505050565b60ff8054611ad990613ba0565b80601f0160208091040260200160405190810160405280929190818152602001828054611b0590613ba0565b8015611b525780601f10611b2757610100808354040283529160200191611b52565b820191906000526020600020905b815481529060010190602001808311611b3557829003601f168201915b505050505081565b6060611b6582611eea565b611ba4576040517f08c379a0000000000000000000000000000000000000000000000000000000008152600401611b9b906144ce565b60405180910390fd5b61010260009054906101000a900460ff1615611bca57611bc38261280f565b9050611c58565b60fe8054611bd790613ba0565b80601f0160208091040260200160405190810160405280929190818152602001828054611c0390613ba0565b8015611c505780601f10611c2557610100808354040283529160200191611c50565b820191906000526020600020905b815481529060010190602001808311611c3357829003601f168201915b505050505090505b919050565b60fb6020528060005260406000206000915054906101000a900460ff1681565b6000606a60008473ffffffffffffffffffffffffffffffffffffffff1673ffffffffffffffffffffffffffffffffffffffff16815260200190815260200160002060008373ffffffffffffffffffffffffffffffffffffffff1673ffffffffffffffffffffffffffffffffffffffff16815260200190815260200160002060009054906101000a900460ff16905092915050565b611d19611f56565b73ffffffffffffffffffffffffffffffffffffffff16611d3761170e565b73ffffffffffffffffffffffffffffffffffffffff1614611d8d576040517f08c379a0000000000000000000000000000000000000000000000000000000008152600401611d8490613e65565b60405180910390fd5b600073ffffffffffffffffffffffffffffffffffffffff168173ffffffffffffffffffffffffffffffffffffffff1603611dfc576040517f08c379a0000000000000000000000000000000000000000000000000000000008152600401611df390614560565b60405180910390fd5b611e058161239d565b50565b60007f80ac58cd000000000000000000000000000000000000000000000000000000007bffffffffffffffffffffffffffffffffffffffffffffffffffffffff1916827bffffffffffffffffffffffffffffffffffffffffffffffffffffffff19161480611ed357507f5b5e139f000000000000000000000000000000000000000000000000000000007bffffffffffffffffffffffffffffffffffffffffffffffffffffffff1916827bffffffffffffffffffffffffffffffffffffffffffffffffffffffff1916145b80611ee35750611ee2826128b6565b5b9050919050565b60008073ffffffffffffffffffffffffffffffffffffffff166067600084815260200190815260200160002060009054906101000a900473ffffffffffffffffffffffffffffffffffffffff1673ffffffffffffffffffffffffffffffffffffffff1614159050919050565b600033905090565b816069600083815260200190815260200160002060006101000a81548173ffffffffffffffffffffffffffffffffffffffff021916908373ffffffffffffffffffffffffffffffffffffffff160217905550808273ffffffffffffffffffffffffffffffffffffffff16611fd1836112e4565b73ffffffffffffffffffffffffffffffffffffffff167f8c5be1e5ebec7d5bd14f71427d1e84f3dd0314c0f7b2291e5b200ac8c7c3b92560405160405180910390a45050565b600061202282611eea565b612061576040517f08c379a0000000000000000000000000000000000000000000000000000000008152600401612058906145f2565b60405180910390fd5b600061206c836112e4565b90508073ffffffffffffffffffffffffffffffffffffffff168473ffffffffffffffffffffffffffffffffffffffff1614806120db57508373ffffffffffffffffffffffffffffffffffffffff166120c38461089b565b73ffffffffffffffffffffffffffffffffffffffff16145b806120ec57506120eb8185611c7d565b5b91505092915050565b8273ffffffffffffffffffffffffffffffffffffffff16612115826112e4565b73ffffffffffffffffffffffffffffffffffffffff161461216b576040517f08c379a000000000000000000000000000000000000000000000000000000000815260040161216290614684565b60405180910390fd5b600073ffffffffffffffffffffffffffffffffffffffff168273ffffffffffffffffffffffffffffffffffffffff16036121da576040517f08c379a00000000000000000000000000000000000000000000000000000000081526004016121d190614716565b60405180910390fd5b6121e5838383612920565b6121f0600082611f5e565b6001606860008573ffffffffffffffffffffffffffffffffffffffff1673ffffffffffffffffffffffffffffffffffffffff16815260200190815260200160002060008282546122409190614765565b925050819055506001606860008473ffffffffffffffffffffffffffffffffffffffff1673ffffffffffffffffffffffffffffffffffffffff16815260200190815260200160002060008282546122979190614799565b92505081905550816067600083815260200190815260200160002060006101000a81548173ffffffffffffffffffffffffffffffffffffffff021916908373ffffffffffffffffffffffffffffffffffffffff160217905550808273ffffffffffffffffffffffffffffffffffffffff168473ffffffffffffffffffffffffffffffffffffffff167fddf252ad1be2c89b69c2b068fc378daa952ba7f163c4a11628f55a4df523b3ef60405160405180910390a4612356838383612a32565b505050565b6001816000016000828254019250508190555050565b600081600001549050919050565b612399828260405180602001604052806000815250612a37565b5050565b600060c960009054906101000a900473ffffffffffffffffffffffffffffffffffffffff1690508160c960006101000a81548173ffffffffffffffffffffffffffffffffffffffff021916908373ffffffffffffffffffffffffffffffffffffffff1602179055508173ffffffffffffffffffffffffffffffffffffffff168173ffffffffffffffffffffffffffffffffffffffff167f8be0079c531659141344cd1fd0a4f28419497f9722a3daafe3b4186f6b6457e060405160405180910390a35050565b600061246e30612a92565b15905090565b600060019054906101000a900460ff166124c3576040517f08c379a00000000000000000000000000000000000000000000000000000000081526004016124ba90614861565b60405180910390fd5b6124cd8282612ab5565b5050565b600060019054906101000a900460ff16612520576040517f08c379a000000000000000000000000000000000000000000000000000000000815260040161251790614861565b60405180910390fd5b612528612b36565b565b6000612535826112e4565b905061254381600084612920565b61254e600083611f5e565b6001606860008373ffffffffffffffffffffffffffffffffffffffff1673ffffffffffffffffffffffffffffffffffffffff168152602001908152602001600020600082825461259e9190614765565b925050819055506067600083815260200190815260200160002060006101000a81549073ffffffffffffffffffffffffffffffffffffffff021916905581600073ffffffffffffffffffffffffffffffffffffffff168273ffffffffffffffffffffffffffffffffffffffff167fddf252ad1be2c89b69c2b068fc378daa952ba7f163c4a11628f55a4df523b3ef60405160405180910390a461264381600084612a32565b5050565b8173ffffffffffffffffffffffffffffffffffffffff168373ffffffffffffffffffffffffffffffffffffffff16036126b5576040517f08c379a00000000000000000000000000000000000000000000000000000000081526004016126ac906148cd565b60405180910390fd5b80606a60008573ffffffffffffffffffffffffffffffffffffffff1673ffffffffffffffffffffffffffffffffffffffff16815260200190815260200160002060008473ffffffffffffffffffffffffffffffffffffffff1673ffffffffffffffffffffffffffffffffffffffff16815260200190815260200160002060006101000a81548160ff0219169083151502179055508173ffffffffffffffffffffffffffffffffffffffff168373ffffffffffffffffffffffffffffffffffffffff167f17307eab39ab6107e8899845ad3d59bd9653f200f220920489ca2b5937696c31836040516127a6919061354b565b60405180910390a3505050565b6127be8484846120f5565b6127ca84848484612b97565b612809576040517f08c379a00000000000000000000000000000000000000000000000000000000081526004016128009061495f565b60405180910390fd5b50505050565b606061281a82611eea565b612859576040517f08c379a0000000000000000000000000000000000000000000000000000000008152600401612850906149f1565b60405180910390fd5b6000612863612d1e565b9050600081511161288357604051806020016040528060008152506128ae565b8061288d84612db0565b60405160200161289e929190614a4d565b6040516020818303038152906040525b915050919050565b60007f01ffc9a7000000000000000000000000000000000000000000000000000000007bffffffffffffffffffffffffffffffffffffffffffffffffffffffff1916827bffffffffffffffffffffffffffffffffffffffffffffffffffffffff1916149050919050565b61292b838383612f10565b600073ffffffffffffffffffffffffffffffffffffffff168373ffffffffffffffffffffffffffffffffffffffff160361296d5761296881612f15565b6129ac565b8173ffffffffffffffffffffffffffffffffffffffff168373ffffffffffffffffffffffffffffffffffffffff16146129ab576129aa8382612f5e565b5b5b600073ffffffffffffffffffffffffffffffffffffffff168273ffffffffffffffffffffffffffffffffffffffff16036129ee576129e9816130cb565b612a2d565b8273ffffffffffffffffffffffffffffffffffffffff168273ffffffffffffffffffffffffffffffffffffffff1614612a2c57612a2b828261319c565b5b5b505050565b505050565b612a41838361321b565b612a4e6000848484612b97565b612a8d576040517f08c379a0000000000000000000000000000000000000000000000000000000008152600401612a849061495f565b60405180910390fd5b505050565b6000808273ffffffffffffffffffffffffffffffffffffffff163b119050919050565b600060019054906101000a900460ff16612b04576040517f08c379a0000000000000000000000000000000000000000000000000000000008152600401612afb90614861565b60405180910390fd5b8160659080519060200190612b1a9291906133f4565b508060669080519060200190612b319291906133f4565b505050565b600060019054906101000a900460ff16612b85576040517f08c379a0000000000000000000000000000000000000000000000000000000008152600401612b7c90614861565b60405180910390fd5b612b95612b90611f56565b61239d565b565b6000612bb88473ffffffffffffffffffffffffffffffffffffffff16612a92565b15612d11578373ffffffffffffffffffffffffffffffffffffffff1663150b7a02612be1611f56565b8786866040518563ffffffff1660e01b8152600401612c039493929190614ac6565b6020604051808303816000875af1925050508015612c3f57506040513d601f19601f82011682018060405250810190612c3c9190614b27565b60015b612cc1573d8060008114612c6f576040519150601f19603f3d011682016040523d82523d6000602084013e612c74565b606091505b506000815103612cb9576040517f08c379a0000000000000000000000000000000000000000000000000000000008152600401612cb09061495f565b60405180910390fd5b805181602001fd5b63150b7a0260e01b7bffffffffffffffffffffffffffffffffffffffffffffffffffffffff1916817bffffffffffffffffffffffffffffffffffffffffffffffffffffffff191614915050612d16565b600190505b949350505050565b606060fd8054612d2d90613ba0565b80601f0160208091040260200160405190810160405280929190818152602001828054612d5990613ba0565b8015612da65780601f10612d7b57610100808354040283529160200191612da6565b820191906000526020600020905b815481529060010190602001808311612d8957829003601f168201915b5050505050905090565b606060008203612df7576040518060400160405280600181526020017f30000000000000000000000000000000000000000000000000000000000000008152509050612f0b565b600082905060005b60008214612e29578080612e1290614b54565b915050600a82612e229190614bcb565b9150612dff565b60008167ffffffffffffffff811115612e4557612e44613859565b5b6040519080825280601f01601f191660200182016040528015612e775781602001600182028036833780820191505090505b5090505b60008514612f0457600182612e909190614765565b9150600a85612e9f9190614bfc565b6030612eab9190614799565b60f81b818381518110612ec157612ec06141c5565b5b60200101907effffffffffffffffffffffffffffffffffffffffffffffffffffffffffffff1916908160001a905350600a85612efd9190614bcb565b9450612e7b565b8093505050505b919050565b505050565b609980549050609a600083815260200190815260200160002081905550609981908060018154018082558091505060019003906000526020600020016000909190919091505550565b60006001612f6b84611395565b612f759190614765565b905060006098600084815260200190815260200160002054905081811461305a576000609760008673ffffffffffffffffffffffffffffffffffffffff1673ffffffffffffffffffffffffffffffffffffffff168152602001908152602001600020600084815260200190815260200160002054905080609760008773ffffffffffffffffffffffffffffffffffffffff1673ffffffffffffffffffffffffffffffffffffffff168152602001908152602001600020600084815260200190815260200160002081905550816098600083815260200190815260200160002081905550505b6098600084815260200190815260200160002060009055609760008573ffffffffffffffffffffffffffffffffffffffff1673ffffffffffffffffffffffffffffffffffffffff16815260200190815260200160002060008381526020019081526020016000206000905550505050565b600060016099805490506130df9190614765565b90506000609a600084815260200190815260200160002054905060006099838154811061310f5761310e6141c5565b5b906000526020600020015490508060998381548110613131576131306141c5565b5b906000526020600020018190555081609a600083815260200190815260200160002081905550609a60008581526020019081526020016000206000905560998054806131805761317f614c2d565b5b6001900381819060005260206000200160009055905550505050565b60006131a783611395565b905081609760008573ffffffffffffffffffffffffffffffffffffffff1673ffffffffffffffffffffffffffffffffffffffff168152602001908152602001600020600083815260200190815260200160002081905550806098600084815260200190815260200160002081905550505050565b600073ffffffffffffffffffffffffffffffffffffffff168273ffffffffffffffffffffffffffffffffffffffff160361328a576040517f08c379a000000000000000000000000000000000000000000000000000000000815260040161328190614ca8565b60405180910390fd5b61329381611eea565b156132d3576040517f08c379a00000000000000000000000000000000000000000000000000000000081526004016132ca90614d14565b60405180910390fd5b6132df60008383612920565b6001606860008473ffffffffffffffffffffffffffffffffffffffff1673ffffffffffffffffffffffffffffffffffffffff168152602001908152602001600020600082825461332f9190614799565b92505081905550816067600083815260200190815260200160002060006101000a81548173ffffffffffffffffffffffffffffffffffffffff021916908373ffffffffffffffffffffffffffffffffffffffff160217905550808273ffffffffffffffffffffffffffffffffffffffff16600073ffffffffffffffffffffffffffffffffffffffff167fddf252ad1be2c89b69c2b068fc378daa952ba7f163c4a11628f55a4df523b3ef60405160405180910390a46133f060008383612a32565b5050565b82805461340090613ba0565b90600052602060002090601f0160209004810192826134225760008555613469565b82601f1061343b57805160ff1916838001178555613469565b82800160010185558215613469579182015b8281111561346857825182559160200191906001019061344d565b5b509050613476919061347a565b5090565b5b8082111561349357600081600090555060010161347b565b5090565b6000604051905090565b600080fd5b600080fd5b60007fffffffff0000000000000000000000000000000000000000000000000000000082169050919050565b6134e0816134ab565b81146134eb57600080fd5b50565b6000813590506134fd816134d7565b92915050565b600060208284031215613519576135186134a1565b5b6000613527848285016134ee565b91505092915050565b60008115159050919050565b61354581613530565b82525050565b6000602082019050613560600083018461353c565b92915050565b600081519050919050565b600082825260208201905092915050565b60005b838110156135a0578082015181840152602081019050613585565b838111156135af576000848401525b50505050565b6000601f19601f8301169050919050565b60006135d182613566565b6135db8185613571565b93506135eb818560208601613582565b6135f4816135b5565b840191505092915050565b6000602082019050818103600083015261361981846135c6565b905092915050565b6000819050919050565b61363481613621565b811461363f57600080fd5b50565b6000813590506136518161362b565b92915050565b60006020828403121561366d5761366c6134a1565b5b600061367b84828501613642565b91505092915050565b600073ffffffffffffffffffffffffffffffffffffffff82169050919050565b60006136af82613684565b9050919050565b6136bf816136a4565b82525050565b60006020820190506136da60008301846136b6565b92915050565b6136e9816136a4565b81146136f457600080fd5b50565b600081359050613706816136e0565b92915050565b60008060408385031215613723576137226134a1565b5b6000613731858286016136f7565b925050602061374285828601613642565b9150509250929050565b61375581613621565b82525050565b6000602082019050613770600083018461374c565b92915050565b60008060006060848603121561378f5761378e6134a1565b5b600061379d868287016136f7565b93505060206137ae868287016136f7565b92505060406137bf86828701613642565b9150509250925092565b6000602082840312156137df576137de6134a1565b5b60006137ed848285016136f7565b91505092915050565b6137ff81613530565b811461380a57600080fd5b50565b60008135905061381c816137f6565b92915050565b600060208284031215613838576138376134a1565b5b60006138468482850161380d565b91505092915050565b600080fd5b600080fd5b7f4e487b7100000000000000000000000000000000000000000000000000000000600052604160045260246000fd5b613891826135b5565b810181811067ffffffffffffffff821117156138b0576138af613859565b5b80604052505050565b60006138c3613497565b90506138cf8282613888565b919050565b600067ffffffffffffffff8211156138ef576138ee613859565b5b6138f8826135b5565b9050602081019050919050565b82818337600083830152505050565b6000613927613922846138d4565b6138b9565b90508281526020810184848401111561394357613942613854565b5b61394e848285613905565b509392505050565b600082601f83011261396b5761396a61384f565b5b813561397b848260208601613914565b91505092915050565b60006020828403121561399a576139996134a1565b5b600082013567ffffffffffffffff8111156139b8576139b76134a6565b5b6139c484828501613956565b91505092915050565b600080604083850312156139e4576139e36134a1565b5b60006139f2858286016136f7565b9250506020613a038582860161380d565b9150509250929050565b600067ffffffffffffffff821115613a2857613a27613859565b5b613a31826135b5565b9050602081019050919050565b6000613a51613a4c84613a0d565b6138b9565b905082815260208101848484011115613a6d57613a6c613854565b5b613a78848285613905565b509392505050565b600082601f830112613a9557613a9461384f565b5b8135613aa5848260208601613a3e565b91505092915050565b60008060008060808587031215613ac857613ac76134a1565b5b6000613ad6878288016136f7565b9450506020613ae7878288016136f7565b9350506040613af887828801613642565b925050606085013567ffffffffffffffff811115613b1957613b186134a6565b5b613b2587828801613a80565b91505092959194509250565b60008060408385031215613b4857613b476134a1565b5b6000613b56858286016136f7565b9250506020613b67858286016136f7565b9150509250929050565b7f4e487b7100000000000000000000000000000000000000000000000000000000600052602260045260246000fd5b60006002820490506001821680613bb857607f821691505b602082108103613bcb57613bca613b71565b5b50919050565b7f4552433732313a20617070726f76656420717565727920666f72206e6f6e657860008201527f697374656e7420746f6b656e0000000000000000000000000000000000000000602082015250565b6000613c2d602c83613571565b9150613c3882613bd1565b604082019050919050565b60006020820190508181036000830152613c5c81613c20565b9050919050565b7f4552433732313a20617070726f76616c20746f2063757272656e74206f776e6560008201527f7200000000000000000000000000000000000000000000000000000000000000602082015250565b6000613cbf602183613571565b9150613cca82613c63565b604082019050919050565b60006020820190508181036000830152613cee81613cb2565b9050919050565b7f4552433732313a20617070726f76652063616c6c6572206973206e6f74206f7760008201527f6e6572206e6f7220617070726f76656420666f7220616c6c0000000000000000602082015250565b6000613d51603883613571565b9150613d5c82613cf5565b604082019050919050565b60006020820190508181036000830152613d8081613d44565b9050919050565b7f4552433732313a207472616e736665722063616c6c6572206973206e6f74206f60008201527f776e6572206e6f7220617070726f766564000000000000000000000000000000602082015250565b6000613de3603183613571565b9150613dee82613d87565b604082019050919050565b60006020820190508181036000830152613e1281613dd6565b9050919050565b7f4f776e61626c653a2063616c6c6572206973206e6f7420746865206f776e6572600082015250565b6000613e4f602083613571565b9150613e5a82613e19565b602082019050919050565b60006020820190508181036000830152613e7e81613e42565b9050919050565b7f464f553a20494e56414c49445f41444452455353000000000000000000000000600082015250565b6000613ebb601483613571565b9150613ec682613e85565b602082019050919050565b60006020820190508181036000830152613eea81613eae565b9050919050565b7f455243373231456e756d657261626c653a206f776e657220696e646578206f7560008201527f74206f6620626f756e6473000000000000000000000000000000000000000000602082015250565b6000613f4d602b83613571565b9150613f5882613ef1565b604082019050919050565b60006020820190508181036000830152613f7c81613f40565b9050919050565b7f464f553a20464f5242494444454e000000000000000000000000000000000000600082015250565b6000613fb9600e83613571565b9150613fc482613f83565b602082019050919050565b60006020820190508181036000830152613fe881613fac565b9050919050565b7f5a435f4e46543a204e4f4e5f4558495354454e545f544f4b454e5f4944000000600082015250565b6000614025601d83613571565b915061403082613fef565b602082019050919050565b6000602082019050818103600083015261405481614018565b9050919050565b7f5a435f4e46543a2053454c465f4455504c49434154494f4e0000000000000000600082015250565b6000614091601883613571565b915061409c8261405b565b602082019050919050565b600060208201905081810360008301526140c081614084565b9050919050565b7f464f553a204e4f545f535550504f525445440000000000000000000000000000600082015250565b60006140fd601283613571565b9150614108826140c7565b602082019050919050565b6000602082019050818103600083015261412c816140f0565b9050919050565b7f455243373231456e756d657261626c653a20676c6f62616c20696e646578206f60008201527f7574206f6620626f756e64730000000000000000000000000000000000000000602082015250565b600061418f602c83613571565b915061419a82614133565b604082019050919050565b600060208201905081810360008301526141be81614182565b9050919050565b7f4e487b7100000000000000000000000000000000000000000000000000000000600052603260045260246000fd5b7f5a435f4e46543a20454d5054595f555249000000000000000000000000000000600082015250565b600061422a601183613571565b9150614235826141f4565b602082019050919050565b600060208201905081810360008301526142598161421d565b9050919050565b7f4552433732313a206f776e657220717565727920666f72206e6f6e657869737460008201527f656e7420746f6b656e0000000000000000000000000000000000000000000000602082015250565b60006142bc602983613571565b91506142c782614260565b604082019050919050565b600060208201905081810360008301526142eb816142af565b9050919050565b7f4552433732313a2062616c616e636520717565727920666f7220746865207a6560008201527f726f206164647265737300000000000000000000000000000000000000000000602082015250565b600061434e602a83613571565b9150614359826142f2565b604082019050919050565b6000602082019050818103600083015261437d81614341565b9050919050565b7f496e697469616c697a61626c653a20636f6e747261637420697320616c72656160008201527f647920696e697469616c697a6564000000000000000000000000000000000000602082015250565b60006143e0602e83613571565b91506143eb82614384565b604082019050919050565b6000602082019050818103600083015261440f816143d3565b9050919050565b7f5a435f4e46543a20464f5242494444454e5f4e4f545f4f574e45520000000000600082015250565b600061444c601b83613571565b915061445782614416565b602082019050919050565b6000602082019050818103600083015261447b8161443f565b9050919050565b7f55524920717565727920666f72206e6f6e6578697374656e7420746f6b656e00600082015250565b60006144b8601f83613571565b91506144c382614482565b602082019050919050565b600060208201905081810360008301526144e7816144ab565b9050919050565b7f4f776e61626c653a206e6577206f776e657220697320746865207a65726f206160008201527f6464726573730000000000000000000000000000000000000000000000000000602082015250565b600061454a602683613571565b9150614555826144ee565b604082019050919050565b600060208201905081810360008301526145798161453d565b9050919050565b7f4552433732313a206f70657261746f7220717565727920666f72206e6f6e657860008201527f697374656e7420746f6b656e0000000000000000000000000000000000000000602082015250565b60006145dc602c83613571565b91506145e782614580565b604082019050919050565b6000602082019050818103600083015261460b816145cf565b9050919050565b7f4552433732313a207472616e736665722066726f6d20696e636f72726563742060008201527f6f776e6572000000000000000000000000000000000000000000000000000000602082015250565b600061466e602583613571565b915061467982614612565b604082019050919050565b6000602082019050818103600083015261469d81614661565b9050919050565b7f4552433732313a207472616e7366657220746f20746865207a65726f2061646460008201527f7265737300000000000000000000000000000000000000000000000000000000602082015250565b6000614700602483613571565b915061470b826146a4565b604082019050919050565b6000602082019050818103600083015261472f816146f3565b9050919050565b7f4e487b7100000000000000000000000000000000000000000000000000000000600052601160045260246000fd5b600061477082613621565b915061477b83613621565b92508282101561478e5761478d614736565b5b828203905092915050565b60006147a482613621565b91506147af83613621565b9250827fffffffffffffffffffffffffffffffffffffffffffffffffffffffffffffffff038211156147e4576147e3614736565b5b828201905092915050565b7f496e697469616c697a61626c653a20636f6e7472616374206973206e6f74206960008201527f6e697469616c697a696e67000000000000000000000000000000000000000000602082015250565b600061484b602b83613571565b9150614856826147ef565b604082019050919050565b6000602082019050818103600083015261487a8161483e565b9050919050565b7f4552433732313a20617070726f766520746f2063616c6c657200000000000000600082015250565b60006148b7601983613571565b91506148c282614881565b602082019050919050565b600060208201905081810360008301526148e6816148aa565b9050919050565b7f4552433732313a207472616e7366657220746f206e6f6e20455243373231526560008201527f63656976657220696d706c656d656e7465720000000000000000000000000000602082015250565b6000614949603283613571565b9150614954826148ed565b604082019050919050565b600060208201905081810360008301526149788161493c565b9050919050565b7f4552433732314d657461646174613a2055524920717565727920666f72206e6f60008201527f6e6578697374656e7420746f6b656e0000000000000000000000000000000000602082015250565b60006149db602f83613571565b91506149e68261497f565b604082019050919050565b60006020820190508181036000830152614a0a816149ce565b9050919050565b600081905092915050565b6000614a2782613566565b614a318185614a11565b9350614a41818560208601613582565b80840191505092915050565b6000614a598285614a1c565b9150614a658284614a1c565b91508190509392505050565b600081519050919050565b600082825260208201905092915050565b6000614a9882614a71565b614aa28185614a7c565b9350614ab2818560208601613582565b614abb816135b5565b840191505092915050565b6000608082019050614adb60008301876136b6565b614ae860208301866136b6565b614af5604083018561374c565b8181036060830152614b078184614a8d565b905095945050505050565b600081519050614b21816134d7565b92915050565b600060208284031215614b3d57614b3c6134a1565b5b6000614b4b84828501614b12565b91505092915050565b6000614b5f82613621565b91507fffffffffffffffffffffffffffffffffffffffffffffffffffffffffffffffff8203614b9157614b90614736565b5b600182019050919050565b7f4e487b7100000000000000000000000000000000000000000000000000000000600052601260045260246000fd5b6000614bd682613621565b9150614be183613621565b925082614bf157614bf0614b9c565b5b828204905092915050565b6000614c0782613621565b9150614c1283613621565b925082614c2257614c21614b9c565b5b828206905092915050565b7f4e487b7100000000000000000000000000000000000000000000000000000000600052603160045260246000fd5b7f4552433732313a206d696e7420746f20746865207a65726f2061646472657373600082015250565b6000614c92602083613571565b9150614c9d82614c5c565b602082019050919050565b60006020820190508181036000830152614cc181614c85565b9050919050565b7f4552433732313a20746f6b656e20616c7265616479206d696e74656400000000600082015250565b6000614cfe601c83613571565b9150614d0982614cc8565b602082019050919050565b60006020820190508181036000830152614d2d81614cf1565b905091905056fea2646970667358221220963d15ead9d74d49c1e3d832c353fa8a6272d4d095ad2c555fb523944b04d66764736f6c634300080d0033",
  "linkReferences": {},
  "deployedLinkReferences": {}
}