{
  "_format": "hh-sol-artifact-1",
  "contractName": "ZoneCapitalNFT",
  "sourceName": "contracts/ZoneCapitalNFT.sol",
  "abi": [
    {
      "anonymous": false,
      "inputs": [
        {
          "indexed": true,
          "internalType": "address",
          "name": "owner",
          "type": "address"
        },
        {
          "indexed": true,
          "internalType": "address",
          "name": "approved",
          "type": "address"
        },
        {
          "indexed": true,
          "internalType": "uint256",
          "name": "tokenId",
          "type": "uint256"
        }
      ],
      "name": "Approval",
      "type": "event"
    },
    {
      "anonymous": false,
      "inputs": [
        {
          "indexed": true,
          "internalType": "address",
          "name": "owner",
          "type": "address"
        },
        {
          "indexed": true,
          "internalType": "address",
          "name": "operator",
          "type": "address"
        },
        {
          "indexed": false,
          "internalType": "bool",
          "name": "approved",
          "type": "bool"
        }
      ],
      "name": "ApprovalForAll",
      "type": "event"
    },
    {
      "anonymous": false,
      "inputs": [
        {
          "indexed": false,
          "internalType": "address",
          "name": "newFactory",
          "type": "address"
        }
      ],
      "name": "FactoryAdded",
      "type": "event"
    },
    {
      "anonymous": false,
      "inputs": [
        {
          "indexed": false,
          "internalType": "address",
          "name": "oldFactory",
          "type": "address"
        }
      ],
      "name": "FactoryRemoved",
      "type": "event"
    },
    {
      "anonymous": false,
      "inputs": [
        {
          "indexed": true,
          "internalType": "address",
          "name": "previousOwner",
          "type": "address"
        },
        {
          "indexed": true,
          "internalType": "address",
          "name": "newOwner",
          "type": "address"
        }
      ],
      "name": "OwnershipTransferred",
      "type": "event"
    },
    {
      "anonymous": false,
      "inputs": [
        {
          "indexed": true,
          "internalType": "address",
          "name": "from",
          "type": "address"
        },
        {
          "indexed": true,
          "internalType": "address",
          "name": "to",
          "type": "address"
        },
        {
          "indexed": true,
          "internalType": "uint256",
          "name": "tokenId",
          "type": "uint256"
        }
      ],
      "name": "Transfer",
      "type": "event"
    },
    {
      "inputs": [
        {
          "internalType": "address",
          "name": "_factory",
          "type": "address"
        }
      ],
      "name": "addFactory",
      "outputs": [],
      "stateMutability": "nonpayable",
      "type": "function"
    },
    {
      "inputs": [
        {
          "internalType": "address",
          "name": "to",
          "type": "address"
        },
        {
          "internalType": "uint256",
          "name": "tokenId",
          "type": "uint256"
        }
      ],
      "name": "approve",
      "outputs": [],
      "stateMutability": "nonpayable",
      "type": "function"
    },
    {
      "inputs": [
        {
          "internalType": "address",
          "name": "owner",
          "type": "address"
        }
      ],
      "name": "balanceOf",
      "outputs": [
        {
          "internalType": "uint256",
          "name": "",
          "type": "uint256"
        }
      ],
      "stateMutability": "view",
      "type": "function"
    },
    {
      "inputs": [],
      "name": "baseUri",
      "outputs": [
        {
          "internalType": "string",
          "name": "",
          "type": "string"
        }
      ],
      "stateMutability": "view",
      "type": "function"
    },
    {
      "inputs": [
        {
          "internalType": "address",
          "name": "_owner",
          "type": "address"
        },
        {
          "internalType": "uint256",
          "name": "_tokenId",
          "type": "uint256"
        }
      ],
      "name": "burn",
      "outputs": [],
      "stateMutability": "nonpayable",
      "type": "function"
    },
    {
      "inputs": [],
      "name": "contractUri",
      "outputs": [
        {
          "internalType": "string",
          "name": "",
          "type": "string"
        }
      ],
      "stateMutability": "view",
      "type": "function"
    },
    {
      "inputs": [
        {
          "internalType": "uint256",
          "name": "tokenId",
          "type": "uint256"
        }
      ],
      "name": "getApproved",
      "outputs": [
        {
          "internalType": "address",
          "name": "",
          "type": "address"
        }
      ],
      "stateMutability": "view",
      "type": "function"
    },
    {
      "inputs": [],
      "name": "initialize",
      "outputs": [],
      "stateMutability": "nonpayable",
      "type": "function"
    },
    {
      "inputs": [
        {
          "internalType": "address",
          "name": "owner",
          "type": "address"
        },
        {
          "internalType": "address",
          "name": "operator",
          "type": "address"
        }
      ],
      "name": "isApprovedForAll",
      "outputs": [
        {
          "internalType": "bool",
          "name": "",
          "type": "bool"
        }
      ],
      "stateMutability": "view",
      "type": "function"
    },
    {
      "inputs": [],
      "name": "isRevealed",
      "outputs": [
        {
          "internalType": "bool",
          "name": "",
          "type": "bool"
        }
      ],
      "stateMutability": "view",
      "type": "function"
    },
    {
      "inputs": [
        {
          "internalType": "uint256",
          "name": "",
          "type": "uint256"
        }
      ],
      "name": "lastOwnerBeforeBurn",
      "outputs": [
        {
          "internalType": "address",
          "name": "",
          "type": "address"
        }
      ],
      "stateMutability": "view",
      "type": "function"
    },
    {
      "inputs": [
        {
          "internalType": "address",
          "name": "_owner",
          "type": "address"
        },
        {
          "internalType": "uint256",
          "name": "_replicatedTokenId",
          "type": "uint256"
        }
      ],
      "name": "mint",
      "outputs": [
        {
          "internalType": "uint256",
          "name": "",
          "type": "uint256"
        }
      ],
      "stateMutability": "nonpayable",
      "type": "function"
    },
    {
      "inputs": [],
      "name": "name",
      "outputs": [
        {
          "internalType": "string",
          "name": "",
          "type": "string"
        }
      ],
      "stateMutability": "view",
      "type": "function"
    },
    {
      "inputs": [
        {
          "internalType": "uint256",
          "name": "",
          "type": "uint256"
        }
      ],
      "name": "originalAsset",
      "outputs": [
        {
          "internalType": "uint256",
          "name": "",
          "type": "uint256"
        }
      ],
      "stateMutability": "view",
      "type": "function"
    },
    {
      "inputs": [
        {
          "internalType": "uint256",
          "name": "_tokenId",
          "type": "uint256"
        }
      ],
      "name": "originalOwner",
      "outputs": [
        {
          "internalType": "address",
          "name": "",
          "type": "address"
        }
      ],
      "stateMutability": "view",
      "type": "function"
    },
    {
      "inputs": [],
      "name": "owner",
      "outputs": [
        {
          "internalType": "address",
          "name": "",
          "type": "address"
        }
      ],
      "stateMutability": "view",
      "type": "function"
    },
    {
      "inputs": [
        {
          "internalType": "uint256",
          "name": "tokenId",
          "type": "uint256"
        }
      ],
      "name": "ownerOf",
      "outputs": [
        {
          "internalType": "address",
          "name": "",
          "type": "address"
        }
      ],
      "stateMutability": "view",
      "type": "function"
    },
    {
      "inputs": [
        {
          "internalType": "address",
          "name": "_factory",
          "type": "address"
        }
      ],
      "name": "removeFactory",
      "outputs": [],
      "stateMutability": "nonpayable",
      "type": "function"
    },
    {
      "inputs": [],
      "name": "renounceOwnership",
      "outputs": [],
      "stateMutability": "nonpayable",
      "type": "function"
    },
    {
      "inputs": [
        {
          "internalType": "address",
          "name": "from",
          "type": "address"
        },
        {
          "internalType": "address",
          "name": "to",
          "type": "address"
        },
        {
          "internalType": "uint256",
          "name": "tokenId",
          "type": "uint256"
        }
      ],
      "name": "safeTransferFrom",
      "outputs": [],
      "stateMutability": "nonpayable",
      "type": "function"
    },
    {
      "inputs": [
        {
          "internalType": "address",
          "name": "from",
          "type": "address"
        },
        {
          "internalType": "address",
          "name": "to",
          "type": "address"
        },
        {
          "internalType": "uint256",
          "name": "tokenId",
          "type": "uint256"
        },
        {
          "internalType": "bytes",
          "name": "_data",
          "type": "bytes"
        }
      ],
      "name": "safeTransferFrom",
      "outputs": [],
      "stateMutability": "nonpayable",
      "type": "function"
    },
    {
      "inputs": [
        {
          "internalType": "address",
          "name": "operator",
          "type": "address"
        },
        {
          "internalType": "bool",
          "name": "approved",
          "type": "bool"
        }
      ],
      "name": "setApprovalForAll",
      "outputs": [],
      "stateMutability": "nonpayable",
      "type": "function"
    },
    {
      "inputs": [
        {
          "internalType": "string",
          "name": "_baseUri",
          "type": "string"
        }
      ],
      "name": "setBaseURI",
      "outputs": [],
      "stateMutability": "nonpayable",
      "type": "function"
    },
    {
      "inputs": [
        {
          "internalType": "string",
          "name": "_newUri",
          "type": "string"
        }
      ],
      "name": "setContractURI",
      "outputs": [],
      "stateMutability": "nonpayable",
      "type": "function"
    },
    {
      "inputs": [
        {
          "internalType": "bool",
          "name": "_isRevealed",
          "type": "bool"
        }
      ],
      "name": "setIsRevealed",
      "outputs": [],
      "stateMutability": "nonpayable",
      "type": "function"
    },
    {
      "inputs": [
        {
          "internalType": "string",
          "name": "_newUri",
          "type": "string"
        }
      ],
      "name": "setUnrevealedTokenURI",
      "outputs": [],
      "stateMutability": "nonpayable",
      "type": "function"
    },
    {
      "inputs": [
        {
          "internalType": "address",
          "name": "",
          "type": "address"
        }
      ],
      "name": "supportedFactories",
      "outputs": [
        {
          "internalType": "bool",
          "name": "",
          "type": "bool"
        }
      ],
      "stateMutability": "view",
      "type": "function"
    },
    {
      "inputs": [
        {
          "internalType": "bytes4",
          "name": "interfaceId",
          "type": "bytes4"
        }
      ],
      "name": "supportsInterface",
      "outputs": [
        {
          "internalType": "bool",
          "name": "",
          "type": "bool"
        }
      ],
      "stateMutability": "view",
      "type": "function"
    },
    {
      "inputs": [],
      "name": "symbol",
      "outputs": [
        {
          "internalType": "string",
          "name": "",
          "type": "string"
        }
      ],
      "stateMutability": "view",
      "type": "function"
    },
    {
      "inputs": [
        {
          "internalType": "uint256",
          "name": "index",
          "type": "uint256"
        }
      ],
      "name": "tokenByIndex",
      "outputs": [
        {
          "internalType": "uint256",
          "name": "",
          "type": "uint256"
        }
      ],
      "stateMutability": "view",
      "type": "function"
    },
    {
      "inputs": [
        {
          "internalType": "address",
          "name": "owner",
          "type": "address"
        },
        {
          "internalType": "uint256",
          "name": "index",
          "type": "uint256"
        }
      ],
      "name": "tokenOfOwnerByIndex",
      "outputs": [
        {
          "internalType": "uint256",
          "name": "",
          "type": "uint256"
        }
      ],
      "stateMutability": "view",
      "type": "function"
    },
    {
      "inputs": [
        {
          "internalType": "uint256",
          "name": "_tokenId",
          "type": "uint256"
        }
      ],
      "name": "tokenURI",
      "outputs": [
        {
          "internalType": "string",
          "name": "",
          "type": "string"
        }
      ],
      "stateMutability": "view",
      "type": "function"
    },
    {
      "inputs": [],
      "name": "totalSupply",
      "outputs": [
        {
          "internalType": "uint256",
          "name": "",
          "type": "uint256"
        }
      ],
      "stateMutability": "view",
      "type": "function"
    },
    {
      "inputs": [
        {
          "internalType": "address",
          "name": "from",
          "type": "address"
        },
        {
          "internalType": "address",
          "name": "to",
          "type": "address"
        },
        {
          "internalType": "uint256",
          "name": "tokenId",
          "type": "uint256"
        }
      ],
      "name": "transferFrom",
      "outputs": [],
      "stateMutability": "nonpayable",
      "type": "function"
    },
    {
      "inputs": [
        {
          "internalType": "address",
          "name": "newOwner",
          "type": "address"
        }
      ],
      "name": "transferOwnership",
      "outputs": [],
      "stateMutability": "nonpayable",
      "type": "function"
    },
    {
      "inputs": [],
      "name": "unrevealedTokenUri",
      "outputs": [
        {
          "internalType": "string",
          "name": "",
          "type": "string"
        }
      ],
      "stateMutability": "view",
      "type": "function"
    }
  ],
  "bytecode": "0x608060405234801561001057600080fd5b50613053806100206000396000f3fe608060405234801561001057600080fd5b506004361061025c5760003560e01c806355f804b3116101455780639abc8320116100bd578063c0e24d5e1161008c578063de05051c11610071578063de05051c146104e0578063e985e9c514610503578063f2fde38b1461053f57600080fd5b8063c0e24d5e146104c5578063c87b56dd146104cd57600080fd5b80639abc8320146104845780639dc29fac1461048c578063a22cb4651461049f578063b88d4fde146104b257600080fd5b80638129fc1c116101145780638da5cb5b116100f95780638da5cb5b14610458578063938e3d7b1461046957806395d89b411461047c57600080fd5b80638129fc1c1461043d578063820de0c51461044557600080fd5b806355f804b3146103fc5780636352211e1461040f57806370a0823114610422578063715018a61461043557600080fd5b80632f745c59116101d857806349a5980a116101a75780634c37043c1161018c5780634c37043c146103ba5780634f6ccce7146103db57806354214f69146103ee57600080fd5b806349a5980a146103945780634b37c73f146103a757600080fd5b80632f745c591461034857806340bb154d1461035b57806340c10f191461036e57806342842e0e1461038157600080fd5b8063095ea7b31161022f57806318160ddd1161021457806318160ddd1461031057806323b872dd1461032257806329ce1ec51461033557600080fd5b8063095ea7b3146102d15780630c99dafa146102e657600080fd5b806301ffc9a71461026157806306c536ab1461028957806306fdde031461029e578063081812fc146102a6575b600080fd5b61027461026f366004612a9a565b610552565b60405190151581526020015b60405180910390f35b6102916105ae565b6040516102809190612b0f565b61029161063c565b6102b96102b4366004612b22565b6106ce565b6040516001600160a01b039091168152602001610280565b6102e46102df366004612b52565b610779565b005b6102b96102f4366004612b22565b610101602052600090815260409020546001600160a01b031681565b6099545b604051908152602001610280565b6102e4610330366004612b7c565b6108aa565b6102e4610343366004612bb8565b610931565b610314610356366004612b52565b610a3c565b6102b9610369366004612b22565b610ae4565b61031461037c366004612b52565b610b4d565b6102e461038f366004612b7c565b610d0b565b6102e46103a2366004612be3565b610d26565b6102e46103b5366004612bb8565b610d94565b6103146103c8366004612b22565b6101006020526000908152604090205481565b6103146103e9366004612b22565b610ea7565b610102546102749060ff1681565b6102e461040a366004612ca3565b610f4b565b6102b961041d366004612b22565b61100d565b610314610430366004612bb8565b611098565b6102e4611132565b6102e4611198565b6102e4610453366004612ca3565b611316565b60c9546001600160a01b03166102b9565b6102e4610477366004612ca3565b6113d4565b610291611441565b610291611450565b6102e461049a366004612b52565b61145d565b6102e46104ad366004612cec565b611576565b6102e46104c0366004612d1f565b611581565b610291611609565b6102916104db366004612b22565b611616565b6102746104ee366004612bb8565b60fb6020526000908152604090205460ff1681565b610274610511366004612d9b565b6001600160a01b039182166000908152606a6020908152604080832093909416825291909152205460ff1690565b6102e461054d366004612bb8565b611729565b60007fffffffff0000000000000000000000000000000000000000000000000000000082167f780e9d630000000000000000000000000000000000000000000000000000000014806105a857506105a882611808565b92915050565b60fe80546105bb90612dc5565b80601f01602080910402602001604051908101604052809291908181526020018280546105e790612dc5565b80156106345780601f1061060957610100808354040283529160200191610634565b820191906000526020600020905b81548152906001019060200180831161061757829003601f168201915b505050505081565b60606065805461064b90612dc5565b80601f016020809104026020016040519081016040528092919081815260200182805461067790612dc5565b80156106c45780601f10610699576101008083540402835291602001916106c4565b820191906000526020600020905b8154815290600101906020018083116106a757829003601f168201915b5050505050905090565b6000818152606760205260408120546001600160a01b031661075d5760405162461bcd60e51b815260206004820152602c60248201527f4552433732313a20617070726f76656420717565727920666f72206e6f6e657860448201527f697374656e7420746f6b656e000000000000000000000000000000000000000060648201526084015b60405180910390fd5b506000908152606960205260409020546001600160a01b031690565b60006107848261100d565b9050806001600160a01b0316836001600160a01b03160361080d5760405162461bcd60e51b815260206004820152602160248201527f4552433732313a20617070726f76616c20746f2063757272656e74206f776e6560448201527f72000000000000000000000000000000000000000000000000000000000000006064820152608401610754565b336001600160a01b038216148061082957506108298133610511565b61089b5760405162461bcd60e51b815260206004820152603860248201527f4552433732313a20617070726f76652063616c6c6572206973206e6f74206f7760448201527f6e6572206e6f7220617070726f76656420666f7220616c6c00000000000000006064820152608401610754565b6108a583836118eb565b505050565b6108b43382611971565b6109265760405162461bcd60e51b815260206004820152603160248201527f4552433732313a207472616e736665722063616c6c6572206973206e6f74206f60448201527f776e6572206e6f7220617070726f7665640000000000000000000000000000006064820152608401610754565b6108a5838383611a79565b60c9546001600160a01b0316331461098b5760405162461bcd60e51b815260206004820181905260248201527f4f776e61626c653a2063616c6c6572206973206e6f7420746865206f776e65726044820152606401610754565b6001600160a01b0381166109e15760405162461bcd60e51b815260206004820152601460248201527f464f553a20494e56414c49445f414444524553530000000000000000000000006044820152606401610754565b6001600160a01b038116600081815260fb6020908152604091829020805460ff1916600117905590519182527f6fdc0147105e43e21da80a75b42d0fd464060d5e1a34b0cefbf0b4ccfc2e36a191015b60405180910390a150565b6000610a4783611098565b8210610abb5760405162461bcd60e51b815260206004820152602b60248201527f455243373231456e756d657261626c653a206f776e657220696e646578206f7560448201527f74206f6620626f756e64730000000000000000000000000000000000000000006064820152608401610754565b506001600160a01b03919091166000908152609760209081526040808320938352929052205490565b600081815261010060205260408120548015610b44576000818152606760205260409020546001600160a01b0316610b3457600081815261010160205260409020546001600160a01b0316610b3d565b610b3d8161100d565b9392505050565b50600092915050565b33600090815260fb602052604081205460ff16610bac5760405162461bcd60e51b815260206004820152600e60248201527f464f553a20464f5242494444454e0000000000000000000000000000000000006044820152606401610754565b610bba60fc80546001019055565b6000610bc560fc5490565b9050610c076040518060400160405280601881526020017f4d696e74204e465420257320666f72206f776e657220257300000000000000008152508286611c69565b610c118482611cde565b82600003610c205790506105a8565b6000838152606760205260409020546001600160a01b0316610c845760405162461bcd60e51b815260206004820152601d60248201527f5a435f4e46543a204e4f4e5f4558495354454e545f544f4b454e5f49440000006044820152606401610754565b828103610cd35760405162461bcd60e51b815260206004820152601860248201527f5a435f4e46543a2053454c465f4455504c49434154494f4e00000000000000006044820152606401610754565b6000838152610100602052604081205490819003610cf15783610cf3565b805b60008381526101006020526040902055509392505050565b6108a583838360405180602001604052806000815250611581565b60c9546001600160a01b03163314610d805760405162461bcd60e51b815260206004820181905260248201527f4f776e61626c653a2063616c6c6572206973206e6f7420746865206f776e65726044820152606401610754565b610102805460ff1916911515919091179055565b60c9546001600160a01b03163314610dee5760405162461bcd60e51b815260206004820181905260248201527f4f776e61626c653a2063616c6c6572206973206e6f7420746865206f776e65726044820152606401610754565b6001600160a01b038116600090815260fb602052604090205460ff16610e565760405162461bcd60e51b815260206004820152601260248201527f464f553a204e4f545f535550504f5254454400000000000000000000000000006044820152606401610754565b6001600160a01b038116600081815260fb6020908152604091829020805460ff1916905590519182527fafa2737b2090fa39c66b7348625f0c03726240f724defbc6216d679506f944419101610a31565b6000610eb260995490565b8210610f265760405162461bcd60e51b815260206004820152602c60248201527f455243373231456e756d657261626c653a20676c6f62616c20696e646578206f60448201527f7574206f6620626f756e647300000000000000000000000000000000000000006064820152608401610754565b60998281548110610f3957610f39612e18565b90600052602060002001549050919050565b60c9546001600160a01b03163314610fa55760405162461bcd60e51b815260206004820181905260248201527f4f776e61626c653a2063616c6c6572206973206e6f7420746865206f776e65726044820152606401610754565b8051600003610ff65760405162461bcd60e51b815260206004820152601160248201527f5a435f4e46543a20454d5054595f5552490000000000000000000000000000006044820152606401610754565b80516110099060fd9060208401906129d3565b5050565b6000818152606760205260408120546001600160a01b0316806105a85760405162461bcd60e51b815260206004820152602960248201527f4552433732313a206f776e657220717565727920666f72206e6f6e657869737460448201527f656e7420746f6b656e00000000000000000000000000000000000000000000006064820152608401610754565b60006001600160a01b0382166111165760405162461bcd60e51b815260206004820152602a60248201527f4552433732313a2062616c616e636520717565727920666f7220746865207a6560448201527f726f2061646472657373000000000000000000000000000000000000000000006064820152608401610754565b506001600160a01b031660009081526068602052604090205490565b60c9546001600160a01b0316331461118c5760405162461bcd60e51b815260206004820181905260248201527f4f776e61626c653a2063616c6c6572206973206e6f7420746865206f776e65726044820152606401610754565b6111966000611cf8565b565b600054610100900460ff166111b35760005460ff16156111b7565b303b155b6112295760405162461bcd60e51b815260206004820152602e60248201527f496e697469616c697a61626c653a20636f6e747261637420697320616c72656160448201527f647920696e697469616c697a65640000000000000000000000000000000000006064820152608401610754565b600054610100900460ff1615801561126857600080547fffffffffffffffffffffffffffffffffffffffffffffffffffffffffffff0000166101011790555b6112dc6040518060400160405280600f81526020017f5a6f6e654361706974616c204e465400000000000000000000000000000000008152506040518060400160405280600e81526020017f5a6f6e654361706974616c4e4654000000000000000000000000000000000000815250611d62565b6112e4611de9565b801561131357600080547fffffffffffffffffffffffffffffffffffffffffffffffffffffffffffff00ff1690555b50565b60c9546001600160a01b031633146113705760405162461bcd60e51b815260206004820181905260248201527f4f776e61626c653a2063616c6c6572206973206e6f7420746865206f776e65726044820152606401610754565b80516000036113c15760405162461bcd60e51b815260206004820152601160248201527f5a435f4e46543a20454d5054595f5552490000000000000000000000000000006044820152606401610754565b80516110099060fe9060208401906129d3565b60c9546001600160a01b0316331461142e5760405162461bcd60e51b815260206004820181905260248201527f4f776e61626c653a2063616c6c6572206973206e6f7420746865206f776e65726044820152606401610754565b80516110099060ff9060208401906129d3565b60606066805461064b90612dc5565b60fd80546105bb90612dc5565b33600090815260fb602052604090205460ff166114bc5760405162461bcd60e51b815260206004820152600e60248201527f464f553a20464f5242494444454e0000000000000000000000000000000000006044820152606401610754565b81816114c78161100d565b6001600160a01b0316826001600160a01b0316146115275760405162461bcd60e51b815260206004820152601b60248201527f5a435f4e46543a20464f5242494444454e5f4e4f545f4f574e455200000000006044820152606401610754565b60008381526101016020526040902080547fffffffffffffffffffffffff0000000000000000000000000000000000000000166001600160a01b03861617905561157083611e6e565b50505050565b611009338383611f2d565b61158b3383611971565b6115fd5760405162461bcd60e51b815260206004820152603160248201527f4552433732313a207472616e736665722063616c6c6572206973206e6f74206f60448201527f776e6572206e6f7220617070726f7665640000000000000000000000000000006064820152608401610754565b61157084848484611ffb565b60ff80546105bb90612dc5565b6000818152606760205260409020546060906001600160a01b031661167d5760405162461bcd60e51b815260206004820152601f60248201527f55524920717565727920666f72206e6f6e6578697374656e7420746f6b656e006044820152606401610754565b6101025460ff1615611692576105a882612084565b60fe805461169f90612dc5565b80601f01602080910402602001604051908101604052809291908181526020018280546116cb90612dc5565b80156117185780601f106116ed57610100808354040283529160200191611718565b820191906000526020600020905b8154815290600101906020018083116116fb57829003601f168201915b50505050509050919050565b919050565b60c9546001600160a01b031633146117835760405162461bcd60e51b815260206004820181905260248201527f4f776e61626c653a2063616c6c6572206973206e6f7420746865206f776e65726044820152606401610754565b6001600160a01b0381166117ff5760405162461bcd60e51b815260206004820152602660248201527f4f776e61626c653a206e6577206f776e657220697320746865207a65726f206160448201527f64647265737300000000000000000000000000000000000000000000000000006064820152608401610754565b61131381611cf8565b60007fffffffff0000000000000000000000000000000000000000000000000000000082167f80ac58cd00000000000000000000000000000000000000000000000000000000148061189b57507fffffffff0000000000000000000000000000000000000000000000000000000082167f5b5e139f00000000000000000000000000000000000000000000000000000000145b806105a857507f01ffc9a7000000000000000000000000000000000000000000000000000000007fffffffff000000000000000000000000000000000000000000000000000000008316146105a8565b600081815260696020526040902080547fffffffffffffffffffffffff0000000000000000000000000000000000000000166001600160a01b03841690811790915581906119388261100d565b6001600160a01b03167f8c5be1e5ebec7d5bd14f71427d1e84f3dd0314c0f7b2291e5b200ac8c7c3b92560405160405180910390a45050565b6000818152606760205260408120546001600160a01b03166119fb5760405162461bcd60e51b815260206004820152602c60248201527f4552433732313a206f70657261746f7220717565727920666f72206e6f6e657860448201527f697374656e7420746f6b656e00000000000000000000000000000000000000006064820152608401610754565b6000611a068361100d565b9050806001600160a01b0316846001600160a01b03161480611a415750836001600160a01b0316611a36846106ce565b6001600160a01b0316145b80611a7157506001600160a01b038082166000908152606a602090815260408083209388168352929052205460ff165b949350505050565b826001600160a01b0316611a8c8261100d565b6001600160a01b031614611b085760405162461bcd60e51b815260206004820152602560248201527f4552433732313a207472616e736665722066726f6d20696e636f72726563742060448201527f6f776e65720000000000000000000000000000000000000000000000000000006064820152608401610754565b6001600160a01b038216611b835760405162461bcd60e51b8152602060048201526024808201527f4552433732313a207472616e7366657220746f20746865207a65726f2061646460448201527f72657373000000000000000000000000000000000000000000000000000000006064820152608401610754565b611b8e83838361216c565b611b996000826118eb565b6001600160a01b0383166000908152606860205260408120805460019290611bc2908490612e76565b90915550506001600160a01b0382166000908152606860205260408120805460019290611bf0908490612e8d565b909155505060008181526067602052604080822080547fffffffffffffffffffffffff0000000000000000000000000000000000000000166001600160a01b0386811691821790925591518493918716917fddf252ad1be2c89b69c2b068fc378daa952ba7f163c4a11628f55a4df523b3ef91a4505050565b6108a5838383604051602401611c8193929190612ea5565b60408051601f198184030181529190526020810180517bffffffffffffffffffffffffffffffffffffffffffffffffffffffff167fe3849f7900000000000000000000000000000000000000000000000000000000179052612224565b611009828260405180602001604052806000815250612245565b60c980546001600160a01b038381167fffffffffffffffffffffffff0000000000000000000000000000000000000000831681179093556040519116919082907f8be0079c531659141344cd1fd0a4f28419497f9722a3daafe3b4186f6b6457e090600090a35050565b600054610100900460ff16611ddf5760405162461bcd60e51b815260206004820152602b60248201527f496e697469616c697a61626c653a20636f6e7472616374206973206e6f74206960448201527f6e697469616c697a696e670000000000000000000000000000000000000000006064820152608401610754565b61100982826122ce565b600054610100900460ff16611e665760405162461bcd60e51b815260206004820152602b60248201527f496e697469616c697a61626c653a20636f6e7472616374206973206e6f74206960448201527f6e697469616c697a696e670000000000000000000000000000000000000000006064820152608401610754565b611196612372565b6000611e798261100d565b9050611e878160008461216c565b611e926000836118eb565b6001600160a01b0381166000908152606860205260408120805460019290611ebb908490612e76565b909155505060008281526067602052604080822080547fffffffffffffffffffffffff0000000000000000000000000000000000000000169055518391906001600160a01b038416907fddf252ad1be2c89b69c2b068fc378daa952ba7f163c4a11628f55a4df523b3ef908390a45050565b816001600160a01b0316836001600160a01b031603611f8e5760405162461bcd60e51b815260206004820152601960248201527f4552433732313a20617070726f766520746f2063616c6c6572000000000000006044820152606401610754565b6001600160a01b038381166000818152606a6020908152604080832094871680845294825291829020805460ff191686151590811790915591519182527f17307eab39ab6107e8899845ad3d59bd9653f200f220920489ca2b5937696c31910160405180910390a3505050565b612006848484611a79565b612012848484846123f8565b6115705760405162461bcd60e51b815260206004820152603260248201527f4552433732313a207472616e7366657220746f206e6f6e20455243373231526560448201527f63656976657220696d706c656d656e74657200000000000000000000000000006064820152608401610754565b6000818152606760205260409020546060906001600160a01b03166121115760405162461bcd60e51b815260206004820152602f60248201527f4552433732314d657461646174613a2055524920717565727920666f72206e6f60448201527f6e6578697374656e7420746f6b656e00000000000000000000000000000000006064820152608401610754565b600061211b612599565b9050600081511161213b5760405180602001604052806000815250610b3d565b80612145846125a8565b604051602001612156929190612ed7565b6040516020818303038152906040529392505050565b6001600160a01b0383166121c7576121c281609980546000838152609a60205260408120829055600182018355919091527f72a152ddfb8e864297c917af52ea6c1c68aead0fee1a62673fcc7e0c94979d000155565b6121ea565b816001600160a01b0316836001600160a01b0316146121ea576121ea83826126dd565b6001600160a01b038216612201576108a58161277a565b826001600160a01b0316826001600160a01b0316146108a5576108a58282612829565b80516a636f6e736f6c652e6c6f67602083016000808483855afa5050505050565b61224f838361286d565b61225c60008484846123f8565b6108a55760405162461bcd60e51b815260206004820152603260248201527f4552433732313a207472616e7366657220746f206e6f6e20455243373231526560448201527f63656976657220696d706c656d656e74657200000000000000000000000000006064820152608401610754565b600054610100900460ff1661234b5760405162461bcd60e51b815260206004820152602b60248201527f496e697469616c697a61626c653a20636f6e7472616374206973206e6f74206960448201527f6e697469616c697a696e670000000000000000000000000000000000000000006064820152608401610754565b815161235e9060659060208501906129d3565b5080516108a59060669060208401906129d3565b600054610100900460ff166123ef5760405162461bcd60e51b815260206004820152602b60248201527f496e697469616c697a61626c653a20636f6e7472616374206973206e6f74206960448201527f6e697469616c697a696e670000000000000000000000000000000000000000006064820152608401610754565b61119633611cf8565b60006001600160a01b0384163b1561258e576040517f150b7a020000000000000000000000000000000000000000000000000000000081526001600160a01b0385169063150b7a0290612455903390899088908890600401612f06565b6020604051808303816000875af1925050508015612490575060408051601f3d908101601f1916820190925261248d91810190612f42565b60015b612543573d8080156124be576040519150601f19603f3d011682016040523d82523d6000602084013e6124c3565b606091505b50805160000361253b5760405162461bcd60e51b815260206004820152603260248201527f4552433732313a207472616e7366657220746f206e6f6e20455243373231526560448201527f63656976657220696d706c656d656e74657200000000000000000000000000006064820152608401610754565b805181602001fd5b7fffffffff00000000000000000000000000000000000000000000000000000000167f150b7a0200000000000000000000000000000000000000000000000000000000149050611a71565b506001949350505050565b606060fd805461064b90612dc5565b6060816000036125eb57505060408051808201909152600181527f3000000000000000000000000000000000000000000000000000000000000000602082015290565b8160005b811561261557806125ff81612f5f565b915061260e9050600a83612fc6565b91506125ef565b60008167ffffffffffffffff81111561263057612630612bfe565b6040519080825280601f01601f19166020018201604052801561265a576020820181803683370190505b5090505b8415611a715761266f600183612e76565b915061267c600a86612fda565b612687906030612e8d565b60f81b81838151811061269c5761269c612e18565b60200101907effffffffffffffffffffffffffffffffffffffffffffffffffffffffffffff1916908160001a9053506126d6600a86612fc6565b945061265e565b600060016126ea84611098565b6126f49190612e76565b600083815260986020526040902054909150808214612747576001600160a01b03841660009081526097602090815260408083208584528252808320548484528184208190558352609890915290208190555b5060009182526098602090815260408084208490556001600160a01b039094168352609781528383209183525290812055565b60995460009061278c90600190612e76565b6000838152609a6020526040812054609980549394509092849081106127b4576127b4612e18565b9060005260206000200154905080609983815481106127d5576127d5612e18565b6000918252602080832090910192909255828152609a9091526040808220849055858252812055609980548061280d5761280d612fee565b6001900381819060005260206000200160009055905550505050565b600061283483611098565b6001600160a01b039093166000908152609760209081526040808320868452825280832085905593825260989052919091209190915550565b6001600160a01b0382166128c35760405162461bcd60e51b815260206004820181905260248201527f4552433732313a206d696e7420746f20746865207a65726f20616464726573736044820152606401610754565b6000818152606760205260409020546001600160a01b0316156129285760405162461bcd60e51b815260206004820152601c60248201527f4552433732313a20746f6b656e20616c7265616479206d696e746564000000006044820152606401610754565b6129346000838361216c565b6001600160a01b038216600090815260686020526040812080546001929061295d908490612e8d565b909155505060008181526067602052604080822080547fffffffffffffffffffffffff0000000000000000000000000000000000000000166001600160a01b03861690811790915590518392907fddf252ad1be2c89b69c2b068fc378daa952ba7f163c4a11628f55a4df523b3ef908290a45050565b8280546129df90612dc5565b90600052602060002090601f016020900481019282612a015760008555612a47565b82601f10612a1a57805160ff1916838001178555612a47565b82800160010185558215612a47579182015b82811115612a47578251825591602001919060010190612a2c565b50612a53929150612a57565b5090565b5b80821115612a535760008155600101612a58565b7fffffffff000000000000000000000000000000000000000000000000000000008116811461131357600080fd5b600060208284031215612aac57600080fd5b8135610b3d81612a6c565b60005b83811015612ad2578181015183820152602001612aba565b838111156115705750506000910152565b60008151808452612afb816020860160208601612ab7565b601f01601f19169290920160200192915050565b602081526000610b3d6020830184612ae3565b600060208284031215612b3457600080fd5b5035919050565b80356001600160a01b038116811461172457600080fd5b60008060408385031215612b6557600080fd5b612b6e83612b3b565b946020939093013593505050565b600080600060608486031215612b9157600080fd5b612b9a84612b3b565b9250612ba860208501612b3b565b9150604084013590509250925092565b600060208284031215612bca57600080fd5b610b3d82612b3b565b8035801515811461172457600080fd5b600060208284031215612bf557600080fd5b610b3d82612bd3565b7f4e487b7100000000000000000000000000000000000000000000000000000000600052604160045260246000fd5b600067ffffffffffffffff80841115612c4857612c48612bfe565b604051601f8501601f19908116603f01168101908282118183101715612c7057612c70612bfe565b81604052809350858152868686011115612c8957600080fd5b858560208301376000602087830101525050509392505050565b600060208284031215612cb557600080fd5b813567ffffffffffffffff811115612ccc57600080fd5b8201601f81018413612cdd57600080fd5b611a7184823560208401612c2d565b60008060408385031215612cff57600080fd5b612d0883612b3b565b9150612d1660208401612bd3565b90509250929050565b60008060008060808587031215612d3557600080fd5b612d3e85612b3b565b9350612d4c60208601612b3b565b925060408501359150606085013567ffffffffffffffff811115612d6f57600080fd5b8501601f81018713612d8057600080fd5b612d8f87823560208401612c2d565b91505092959194509250565b60008060408385031215612dae57600080fd5b612db783612b3b565b9150612d1660208401612b3b565b600181811c90821680612dd957607f821691505b602082108103612e12577f4e487b7100000000000000000000000000000000000000000000000000000000600052602260045260246000fd5b50919050565b7f4e487b7100000000000000000000000000000000000000000000000000000000600052603260045260246000fd5b7f4e487b7100000000000000000000000000000000000000000000000000000000600052601160045260246000fd5b600082821015612e8857612e88612e47565b500390565b60008219821115612ea057612ea0612e47565b500190565b606081526000612eb86060830186612ae3565b90508360208301526001600160a01b0383166040830152949350505050565b60008351612ee9818460208801612ab7565b835190830190612efd818360208801612ab7565b01949350505050565b60006001600160a01b03808716835280861660208401525083604083015260806060830152612f386080830184612ae3565b9695505050505050565b600060208284031215612f5457600080fd5b8151610b3d81612a6c565b60007fffffffffffffffffffffffffffffffffffffffffffffffffffffffffffffffff8203612f9057612f90612e47565b5060010190565b7f4e487b7100000000000000000000000000000000000000000000000000000000600052601260045260246000fd5b600082612fd557612fd5612f97565b500490565b600082612fe957612fe9612f97565b500690565b7f4e487b7100000000000000000000000000000000000000000000000000000000600052603160045260246000fdfea26469706673582212207716a3dd0bd7678cd249700585602abe24bbd7029df350848c4ded793965a00b64736f6c634300080d0033",
  "linkReferences": {},
  "deployedLinkReferences": {}
}