{
  "_format": "hh-sol-artifact-1",
  "contractName": "ZoneCapitalHolding",
  "sourceName": "contracts/ZoneCapitalHolding.sol",
  "abi": [
    {
      "anonymous": false,
      "inputs": [
        {
          "indexed": false,
          "internalType": "address",
          "name": "newFactory",
          "type": "address"
        }
      ],
      "name": "FactoryAdded",
      "type": "event"
    },
    {
      "anonymous": false,
      "inputs": [
        {
          "indexed": false,
          "internalType": "address",
          "name": "oldFactory",
          "type": "address"
        }
      ],
      "name": "FactoryRemoved",
      "type": "event"
    },
    {
      "anonymous": false,
      "inputs": [
        {
          "indexed": false,
          "internalType": "uint256",
          "name": "nftId",
          "type": "uint256"
        },
        {
          "indexed": false,
          "internalType": "uint256",
          "name": "timestamp",
          "type": "uint256"
        }
      ],
      "name": "LockTimestampIncreased",
      "type": "event"
    },
    {
      "anonymous": false,
      "inputs": [
        {
          "indexed": false,
          "internalType": "uint256",
          "name": "maxHoldingsCount",
          "type": "uint256"
        }
      ],
      "name": "MaxHoldingsChanges",
      "type": "event"
    },
    {
      "anonymous": false,
      "inputs": [
        {
          "indexed": true,
          "internalType": "address",
          "name": "previousOwner",
          "type": "address"
        },
        {
          "indexed": true,
          "internalType": "address",
          "name": "newOwner",
          "type": "address"
        }
      ],
      "name": "OwnershipTransferred",
      "type": "event"
    },
    {
      "anonymous": false,
      "inputs": [
        {
          "indexed": false,
          "internalType": "uint256",
          "name": "nftId",
          "type": "uint256"
        },
        {
          "indexed": false,
          "internalType": "address",
          "name": "token",
          "type": "address"
        },
        {
          "indexed": false,
          "internalType": "uint256",
          "name": "amount",
          "type": "uint256"
        },
        {
          "indexed": false,
          "internalType": "address",
          "name": "portfolio",
          "type": "address"
        }
      ],
      "name": "PorfolioAssetStored",
      "type": "event"
    },
    {
      "anonymous": false,
      "inputs": [
        {
          "indexed": false,
          "internalType": "uint256",
          "name": "nftId",
          "type": "uint256"
        },
        {
          "indexed": false,
          "internalType": "address",
          "name": "newPorfolio",
          "type": "address"
        }
      ],
      "name": "PorfolioUpdated",
      "type": "event"
    },
    {
      "inputs": [
        {
          "internalType": "address",
          "name": "_factory",
          "type": "address"
        }
      ],
      "name": "addFactory",
      "outputs": [],
      "stateMutability": "nonpayable",
      "type": "function"
    },
    {
      "inputs": [
        {
          "internalType": "uint256",
          "name": "_nftId",
          "type": "uint256"
        },
        {
          "internalType": "uint256",
          "name": "_tokenIndex",
          "type": "uint256"
        }
      ],
      "name": "deleteAsset",
      "outputs": [],
      "stateMutability": "nonpayable",
      "type": "function"
    },
    {
      "inputs": [
        {
          "internalType": "uint256",
          "name": "_nftId",
          "type": "uint256"
        },
        {
          "internalType": "address",
          "name": "_token",
          "type": "address"
        }
      ],
      "name": "freeHolding",
      "outputs": [],
      "stateMutability": "nonpayable",
      "type": "function"
    },
    {
      "inputs": [
        {
          "internalType": "uint256",
          "name": "_nftId",
          "type": "uint256"
        },
        {
          "internalType": "address",
          "name": "_token",
          "type": "address"
        }
      ],
      "name": "getAssetHolding",
      "outputs": [
        {
          "internalType": "uint256",
          "name": "",
          "type": "uint256"
        }
      ],
      "stateMutability": "view",
      "type": "function"
    },
    {
      "inputs": [
        {
          "internalType": "uint256",
          "name": "_nftId",
          "type": "uint256"
        }
      ],
      "name": "getAssetPortfolio",
      "outputs": [
        {
          "internalType": "address",
          "name": "",
          "type": "address"
        }
      ],
      "stateMutability": "view",
      "type": "function"
    },
    {
      "inputs": [
        {
          "internalType": "uint256",
          "name": "_nftId",
          "type": "uint256"
        }
      ],
      "name": "getAssetTokens",
      "outputs": [
        {
          "internalType": "address[]",
          "name": "",
          "type": "address[]"
        }
      ],
      "stateMutability": "view",
      "type": "function"
    },
    {
      "inputs": [
        {
          "internalType": "uint256",
          "name": "_nftId",
          "type": "uint256"
        }
      ],
      "name": "getAssetTokensLength",
      "outputs": [
        {
          "internalType": "uint256",
          "name": "",
          "type": "uint256"
        }
      ],
      "stateMutability": "view",
      "type": "function"
    },
    {
      "inputs": [
        {
          "internalType": "uint256",
          "name": "_nftId",
          "type": "uint256"
        }
      ],
      "name": "getLockTimestamp",
      "outputs": [
        {
          "internalType": "uint256",
          "name": "",
          "type": "uint256"
        }
      ],
      "stateMutability": "view",
      "type": "function"
    },
    {
      "inputs": [
        {
          "internalType": "uint256",
          "name": "_maxHoldingsCount",
          "type": "uint256"
        }
      ],
      "name": "initialize",
      "outputs": [],
      "stateMutability": "nonpayable",
      "type": "function"
    },
    {
      "inputs": [],
      "name": "maxHoldingsCount",
      "outputs": [
        {
          "internalType": "uint256",
          "name": "",
          "type": "uint256"
        }
      ],
      "stateMutability": "view",
      "type": "function"
    },
    {
      "inputs": [],
      "name": "owner",
      "outputs": [
        {
          "internalType": "address",
          "name": "",
          "type": "address"
        }
      ],
      "stateMutability": "view",
      "type": "function"
    },
    {
      "inputs": [
        {
          "internalType": "uint256",
          "name": "",
          "type": "uint256"
        }
      ],
      "name": "records",
      "outputs": [
        {
          "internalType": "address",
          "name": "portfolio",
          "type": "address"
        },
        {
          "internalType": "uint256",
          "name": "lockTimestamp",
          "type": "uint256"
        }
      ],
      "stateMutability": "view",
      "type": "function"
    },
    {
      "inputs": [
        {
          "internalType": "address",
          "name": "_factory",
          "type": "address"
        }
      ],
      "name": "removeFactory",
      "outputs": [],
      "stateMutability": "nonpayable",
      "type": "function"
    },
    {
      "inputs": [
        {
          "internalType": "uint256",
          "name": "_nftId",
          "type": "uint256"
        }
      ],
      "name": "removeNFT",
      "outputs": [],
      "stateMutability": "nonpayable",
      "type": "function"
    },
    {
      "inputs": [],
      "name": "renounceOwnership",
      "outputs": [],
      "stateMutability": "nonpayable",
      "type": "function"
    },
    {
      "inputs": [
        {
          "internalType": "uint256",
          "name": "_maxHoldingsCount",
          "type": "uint256"
        }
      ],
      "name": "setMaxHoldingsCount",
      "outputs": [],
      "stateMutability": "nonpayable",
      "type": "function"
    },
    {
      "inputs": [
        {
          "internalType": "uint256",
          "name": "_nftId",
          "type": "uint256"
        },
        {
          "internalType": "address",
          "name": "_nextPortfolio",
          "type": "address"
        }
      ],
      "name": "setPorfolio",
      "outputs": [],
      "stateMutability": "nonpayable",
      "type": "function"
    },
    {
      "inputs": [
        {
          "internalType": "uint256",
          "name": "_nftId",
          "type": "uint256"
        },
        {
          "internalType": "address",
          "name": "_token",
          "type": "address"
        },
        {
          "internalType": "uint256",
          "name": "_amount",
          "type": "uint256"
        },
        {
          "internalType": "address",
          "name": "_portfolio",
          "type": "address"
        }
      ],
      "name": "store",
      "outputs": [],
      "stateMutability": "nonpayable",
      "type": "function"
    },
    {
      "inputs": [
        {
          "internalType": "address",
          "name": "",
          "type": "address"
        }
      ],
      "name": "supportedFactories",
      "outputs": [
        {
          "internalType": "bool",
          "name": "",
          "type": "bool"
        }
      ],
      "stateMutability": "view",
      "type": "function"
    },
    {
      "inputs": [
        {
          "internalType": "uint256",
          "name": "_nftId",
          "type": "uint256"
        }
      ],
      "name": "tokenHoldings",
      "outputs": [
        {
          "internalType": "address[]",
          "name": "",
          "type": "address[]"
        },
        {
          "internalType": "uint256[]",
          "name": "",
          "type": "uint256[]"
        }
      ],
      "stateMutability": "view",
      "type": "function"
    },
    {
      "inputs": [
        {
          "internalType": "address",
          "name": "newOwner",
          "type": "address"
        }
      ],
      "name": "transferOwnership",
      "outputs": [],
      "stateMutability": "nonpayable",
      "type": "function"
    },
    {
      "inputs": [
        {
          "internalType": "uint256",
          "name": "_nftId",
          "type": "uint256"
        },
        {
          "internalType": "address",
          "name": "_token",
          "type": "address"
        },
        {
          "internalType": "uint256",
          "name": "_amount",
          "type": "uint256"
        }
      ],
      "name": "updateHoldingAmount",
      "outputs": [],
      "stateMutability": "nonpayable",
      "type": "function"
    },
    {
      "inputs": [
        {
          "internalType": "uint256",
          "name": "_nftId",
          "type": "uint256"
        },
        {
          "internalType": "uint256",
          "name": "_timestamp",
          "type": "uint256"
        }
      ],
      "name": "updateLockTimestamp",
      "outputs": [],
      "stateMutability": "nonpayable",
      "type": "function"
    }
  ],
  "bytecode": "0x608060405234801561001057600080fd5b50611960806100206000396000f3fe608060405234801561001057600080fd5b506004361061018c5760003560e01c80636881bdcd116100e3578063ad79b5461161008c578063ee4739cb11610066578063ee4739cb146103f8578063f2fde38b1461040b578063fe4b84df1461041e57600080fd5b8063ad79b5461461036c578063c1efb2ec146103a2578063de05051c146103c557600080fd5b80638da5cb5b116100bd5780638da5cb5b146102fa578063a554b63e1461031f578063a916722c1461034b57600080fd5b80636881bdcd146102b8578063715018a6146102cf5780637b657c35146102d757600080fd5b806334461067116101455780634671b0e31161011f5780634671b0e3146102725780634b37c73f146102855780634e319b2c1461029857600080fd5b806334461067146101f257806337f761f31461024c5780633d0372ae1461025f57600080fd5b80630e2c1eaa116101765780630e2c1eaa146101b957806329ce1ec5146101cc578063308f6fa3146101df57600080fd5b80620570b71461019157806303e5ec67146101a6575b600080fd5b6101a461019f366004611655565b610431565b005b6101a46101b436600461168a565b610536565b6101a46101c73660046116b6565b610617565b6101a46101da3660046116cf565b6106fd565b6101a46101ed36600461168a565b61081f565b6102286102003660046116b6565b606660205260009081526040902060028101546003909101546001600160a01b039091169082565b604080516001600160a01b0390931683526020830191909152015b60405180910390f35b6101a461025a3660046116f1565b6108a4565b6101a461026d3660046116f1565b6109ae565b6101a4610280366004611713565b610bc5565b6101a46102933660046116cf565b610f07565b6102ab6102a63660046116b6565b611038565b604051610243919061179d565b6102c160675481565b604051908152602001610243565b6101a46110a7565b6102c16102e53660046116b6565b60009081526066602052604090206001015490565b6033546001600160a01b03165b6040516001600160a01b039091168152602001610243565b61030761032d3660046116b6565b6000908152606660205260409020600201546001600160a01b031690565b61035e6103593660046116b6565b61110d565b6040516102439291906117b0565b6102c161037a36600461168a565b60009182526066602090815260408084206001600160a01b0393909316845291905290205490565b6102c16103b03660046116b6565b60009081526066602052604090206003015490565b6103e86103d33660046116cf565b60656020526000908152604090205460ff1681565b6040519015158152602001610243565b6101a46104063660046116b6565b6111f4565b6101a46104193660046116cf565b6112a5565b6101a461042c3660046116b6565b611387565b3360009081526065602052604090205460ff166104955760405162461bcd60e51b815260206004820152600e60248201527f464f553a20464f5242494444454e00000000000000000000000000000000000060448201526064015b60405180910390fd5b8060000361050f576000806104a985611038565b90505b805182101561050857836001600160a01b03168183815181106104d1576104d1611807565b60200260200101516001600160a01b0316036104f6576104f185836109ae565b610508565b8161050081611865565b9250506104ac565b5050505050565b60009283526066602090815260408085206001600160a01b03949094168552929052912055565b3360009081526065602052604090205460ff166105955760405162461bcd60e51b815260206004820152600e60248201527f464f553a20464f5242494444454e000000000000000000000000000000000000604482015260640161048c565b60008281526066602090815260409182902060020180547fffffffffffffffffffffffff0000000000000000000000000000000000000000166001600160a01b0385169081179091558251858152918201527f19c4f8cec0be4d5e188e4b66e9bb5f89f35acb17db0a57ddbd7e9e15bb95efea91015b60405180910390a15050565b6033546001600160a01b031633146106715760405162461bcd60e51b815260206004820181905260248201527f4f776e61626c653a2063616c6c6572206973206e6f7420746865206f776e6572604482015260640161048c565b806000036106c15760405162461bcd60e51b815260206004820152601960248201527f5a43483a20494e56414c49445f4d41585f484f4c44494e475300000000000000604482015260640161048c565b60678190556040518181527f0ad9f5610450f0509e1e963a7a9337c7d4fec661289a3f2a48a9ff78c30dc54c906020015b60405180910390a150565b6033546001600160a01b031633146107575760405162461bcd60e51b815260206004820181905260248201527f4f776e61626c653a2063616c6c6572206973206e6f7420746865206f776e6572604482015260640161048c565b6001600160a01b0381166107ad5760405162461bcd60e51b815260206004820152601460248201527f464f553a20494e56414c49445f41444452455353000000000000000000000000604482015260640161048c565b6001600160a01b03811660008181526065602090815260409182902080547fffffffffffffffffffffffffffffffffffffffffffffffffffffffffffffff0016600117905590519182527f6fdc0147105e43e21da80a75b42d0fd464060d5e1a34b0cefbf0b4ccfc2e36a191016106f2565b3360009081526065602052604090205460ff1661087e5760405162461bcd60e51b815260206004820152600e60248201527f464f553a20464f5242494444454e000000000000000000000000000000000000604482015260640161048c565b60009182526066602090815260408084206001600160a01b039093168452919052812055565b3360009081526065602052604090205460ff166109035760405162461bcd60e51b815260206004820152600e60248201527f464f553a20464f5242494444454e000000000000000000000000000000000000604482015260640161048c565b60008281526066602052604090206003015481116109635760405162461bcd60e51b815260206004820152601e60248201527f5a43483a204c4f434b5f504552494f445f43414e545f44454352454153450000604482015260640161048c565b60008281526066602090815260409182902060030183905581518481529081018390527f1d138250ddebc95775e94ffe9f5ab94ecbe3da56272f4903f2d75adf32d9071d910161060b565b3360009081526065602052604090205460ff16610a0d5760405162461bcd60e51b815260206004820152600e60248201527f464f553a20464f5242494444454e000000000000000000000000000000000000604482015260640161048c565b60008281526066602052604081206001018054909190829084908110610a3557610a35611807565b60009182526020808320909101548683526066825260408084206001600160a01b0390921680855291909252908220549092509003610ab65760405162461bcd60e51b815260206004820152601560248201527f5a43483a20484f4c44494e475f494e4143544956450000000000000000000000604482015260640161048c565b60008481526066602090815260408083206001600160a01b038516845290915281205581548290610ae99060019061189d565b81548110610af957610af9611807565b9060005260206000200160009054906101000a90046001600160a01b0316828481548110610b2957610b29611807565b9060005260206000200160006101000a8154816001600160a01b0302191690836001600160a01b0316021790555081805480610b6757610b676118b4565b60008281526020902081017fffffffffffffffffffffffffffffffffffffffffffffffffffffffffffffffff90810180547fffffffffffffffffffffffff000000000000000000000000000000000000000016905501905550505050565b3360009081526065602052604090205460ff16610c245760405162461bcd60e51b815260206004820152600e60248201527f464f553a20464f5242494444454e000000000000000000000000000000000000604482015260640161048c565b60008481526066602090815260408083206001600160a01b0387168452918290528220549091849003610c995760405162461bcd60e51b815260206004820152601360248201527f5a43483a20494e56414c49445f414d4f554e5400000000000000000000000000604482015260640161048c565b8015610d6d5760028201546001600160a01b03848116911614610cfe5760405162461bcd60e51b815260206004820152601760248201527f5a43483a20504f5254464f4c494f5f4d49534d41544348000000000000000000604482015260640161048c565b610d0d868661019f87856118e3565b7ff6ca8a0cf817c76698fb8b105f17ad1ec7a4192151071704f85011744ba8df5f8686610d3a87856118e3565b604080519384526001600160a01b0392831660208501528301528516606082015260800160405180910390a15050610f01565b606754600183015410610dc25760405162461bcd60e51b815260206004820152601460248201527f5a43483a20544f4f5f4d414e595f544f4b454e53000000000000000000000000604482015260640161048c565b6001600160a01b03831615801590610dfe575060028201546001600160a01b0384811691161480610dfe575060028201546001600160a01b0316155b610e4a5760405162461bcd60e51b815260206004820152601660248201527f5a43483a20494e56414c49445f504f5254464f4c494f00000000000000000000604482015260640161048c565b6001600160a01b0385811660008181526020858152604080832089905560018088018054918201815584529282902090920180547fffffffffffffffffffffffff00000000000000000000000000000000000000009081168517909155600287018054909116948816948517905581518a815290810192909252810186905260608101919091527ff6ca8a0cf817c76698fb8b105f17ad1ec7a4192151071704f85011744ba8df5f9060800160405180910390a150505b50505050565b6033546001600160a01b03163314610f615760405162461bcd60e51b815260206004820181905260248201527f4f776e61626c653a2063616c6c6572206973206e6f7420746865206f776e6572604482015260640161048c565b6001600160a01b03811660009081526065602052604090205460ff16610fc95760405162461bcd60e51b815260206004820152601260248201527f464f553a204e4f545f535550504f525445440000000000000000000000000000604482015260640161048c565b6001600160a01b03811660008181526065602090815260409182902080547fffffffffffffffffffffffffffffffffffffffffffffffffffffffffffffff0016905590519182527fafa2737b2090fa39c66b7348625f0c03726240f724defbc6216d679506f9444191016106f2565b60008181526066602090815260409182902060010180548351818402810184019094528084526060939283018282801561109b57602002820191906000526020600020905b81546001600160a01b0316815260019091019060200180831161107d575b50505050509050919050565b6033546001600160a01b031633146111015760405162461bcd60e51b815260206004820181905260248201527f4f776e61626c653a2063616c6c6572206973206e6f7420746865206f776e6572604482015260640161048c565b61110b6000611497565b565b606080600061111b84611038565b805190915060008167ffffffffffffffff81111561113b5761113b6118fb565b604051908082528060200260200182016040528015611164578160200160208202803683370190505b50905060005b828110156111e7576111b88785838151811061118857611188611807565b602002602001015160009182526066602090815260408084206001600160a01b0393909316845291905290205490565b8282815181106111ca576111ca611807565b6020908102919091010152806111df81611865565b91505061116a565b5091959194509092505050565b3360009081526065602052604090205460ff166112535760405162461bcd60e51b815260206004820152600e60248201527f464f553a20464f5242494444454e000000000000000000000000000000000000604482015260640161048c565b60008181526066602052604081209061126f6001830182611607565b506002810180547fffffffffffffffffffffffff0000000000000000000000000000000000000000169055600060039091015550565b6033546001600160a01b031633146112ff5760405162461bcd60e51b815260206004820181905260248201527f4f776e61626c653a2063616c6c6572206973206e6f7420746865206f776e6572604482015260640161048c565b6001600160a01b03811661137b5760405162461bcd60e51b815260206004820152602660248201527f4f776e61626c653a206e6577206f776e657220697320746865207a65726f206160448201527f6464726573730000000000000000000000000000000000000000000000000000606482015260840161048c565b61138481611497565b50565b600054610100900460ff166113a25760005460ff16156113a6565b303b155b6114185760405162461bcd60e51b815260206004820152602e60248201527f496e697469616c697a61626c653a20636f6e747261637420697320616c72656160448201527f647920696e697469616c697a6564000000000000000000000000000000000000606482015260840161048c565b600054610100900460ff1615801561145757600080547fffffffffffffffffffffffffffffffffffffffffffffffffffffffffffff0000166101011790555b61145f611501565b6067829055801561149357600080547fffffffffffffffffffffffffffffffffffffffffffffffffffffffffffff00ff1690555b5050565b603380546001600160a01b038381167fffffffffffffffffffffffff0000000000000000000000000000000000000000831681179093556040519116919082907f8be0079c531659141344cd1fd0a4f28419497f9722a3daafe3b4186f6b6457e090600090a35050565b600054610100900460ff1661157e5760405162461bcd60e51b815260206004820152602b60248201527f496e697469616c697a61626c653a20636f6e7472616374206973206e6f74206960448201527f6e697469616c697a696e67000000000000000000000000000000000000000000606482015260840161048c565b61110b600054610100900460ff166115fe5760405162461bcd60e51b815260206004820152602b60248201527f496e697469616c697a61626c653a20636f6e7472616374206973206e6f74206960448201527f6e697469616c697a696e67000000000000000000000000000000000000000000606482015260840161048c565b61110b33611497565b508054600082559060005260206000209081019061138491905b808211156116355760008155600101611621565b5090565b80356001600160a01b038116811461165057600080fd5b919050565b60008060006060848603121561166a57600080fd5b8335925061167a60208501611639565b9150604084013590509250925092565b6000806040838503121561169d57600080fd5b823591506116ad60208401611639565b90509250929050565b6000602082840312156116c857600080fd5b5035919050565b6000602082840312156116e157600080fd5b6116ea82611639565b9392505050565b6000806040838503121561170457600080fd5b50508035926020909101359150565b6000806000806080858703121561172957600080fd5b8435935061173960208601611639565b92506040850135915061174e60608601611639565b905092959194509250565b600081518084526020808501945080840160005b838110156117925781516001600160a01b03168752958201959082019060010161176d565b509495945050505050565b6020815260006116ea6020830184611759565b6040815260006117c36040830185611759565b82810360208481019190915284518083528582019282019060005b818110156117fa578451835293830193918301916001016117de565b5090979650505050505050565b7f4e487b7100000000000000000000000000000000000000000000000000000000600052603260045260246000fd5b7f4e487b7100000000000000000000000000000000000000000000000000000000600052601160045260246000fd5b60007fffffffffffffffffffffffffffffffffffffffffffffffffffffffffffffffff820361189657611896611836565b5060010190565b6000828210156118af576118af611836565b500390565b7f4e487b7100000000000000000000000000000000000000000000000000000000600052603160045260246000fd5b600082198211156118f6576118f6611836565b500190565b7f4e487b7100000000000000000000000000000000000000000000000000000000600052604160045260246000fdfea26469706673582212200fd9e1d5a56c152176bcd494e90e641d196cbb56e28db103d5605e46cb69b87d64736f6c634300080d0033",
  "linkReferences": {},
  "deployedLinkReferences": {}
}