{
  "_format": "hh-sol-artifact-1",
  "contractName": "ZoneCapitalFactory",
  "sourceName": "contracts/ZoneCapitalFactory.sol",
  "abi": [
    {
      "anonymous": false,
      "inputs": [
        {
          "indexed": true,
          "internalType": "uint256",
          "name": "nftId",
          "type": "uint256"
        },
        {
          "indexed": false,
          "internalType": "uint256",
          "name": "originalNftId",
          "type": "uint256"
        }
      ],
      "name": "NftCreated",
      "type": "event"
    },
    {
      "anonymous": false,
      "inputs": [
        {
          "indexed": true,
          "internalType": "uint256",
          "name": "nftId",
          "type": "uint256"
        }
      ],
      "name": "NftUpdated",
      "type": "event"
    },
    {
      "anonymous": false,
      "inputs": [
        {
          "indexed": false,
          "internalType": "bytes32",
          "name": "newOperator",
          "type": "bytes32"
        }
      ],
      "name": "OperatorAdded",
      "type": "event"
    },
    {
      "anonymous": false,
      "inputs": [
        {
          "indexed": false,
          "internalType": "bytes32",
          "name": "oldOperator",
          "type": "bytes32"
        }
      ],
      "name": "OperatorRemoved",
      "type": "event"
    },
    {
      "anonymous": false,
      "inputs": [
        {
          "indexed": true,
          "internalType": "address",
          "name": "previousOwner",
          "type": "address"
        },
        {
          "indexed": true,
          "internalType": "address",
          "name": "newOwner",
          "type": "address"
        }
      ],
      "name": "OwnershipTransferred",
      "type": "event"
    },
    {
      "anonymous": false,
      "inputs": [
        {
          "indexed": false,
          "internalType": "address",
          "name": "token",
          "type": "address"
        },
        {
          "indexed": false,
          "internalType": "uint256",
          "name": "amount",
          "type": "uint256"
        }
      ],
      "name": "TokensUnlocked",
      "type": "event"
    },
    {
      "inputs": [
        {
          "internalType": "bytes32",
          "name": "operator",
          "type": "bytes32"
        }
      ],
      "name": "addOperator",
      "outputs": [],
      "stateMutability": "nonpayable",
      "type": "function"
    },
    {
      "inputs": [
        {
          "internalType": "uint256",
          "name": "_originalTokenId",
          "type": "uint256"
        },
        {
          "components": [
            {
              "internalType": "contract IERC20Upgradeable",
              "name": "inputToken",
              "type": "address"
            },
            {
              "internalType": "uint256",
              "name": "amount",
              "type": "uint256"
            },
            {
              "components": [
                {
                  "internalType": "bytes32",
                  "name": "operator",
                  "type": "bytes32"
                },
                {
                  "internalType": "address",
                  "name": "token",
                  "type": "address"
                },
                {
                  "internalType": "bytes",
                  "name": "callData",
                  "type": "bytes"
                }
              ],
              "internalType": "struct IZoneCapitalFactory.Order[]",
              "name": "orders",
              "type": "tuple[]"
            },
            {
              "internalType": "bool",
              "name": "fromPortfolio",
              "type": "bool"
            }
          ],
          "internalType": "struct IZoneCapitalFactory.BatchedInputOrders[]",
          "name": "_batchedOrders",
          "type": "tuple[]"
        }
      ],
      "name": "create",
      "outputs": [],
      "stateMutability": "payable",
      "type": "function"
    },
    {
      "inputs": [
        {
          "internalType": "uint256",
          "name": "_nftId",
          "type": "uint256"
        },
        {
          "internalType": "contract IERC20Upgradeable",
          "name": "_buyToken",
          "type": "address"
        },
        {
          "components": [
            {
              "internalType": "bytes32",
              "name": "operator",
              "type": "bytes32"
            },
            {
              "internalType": "address",
              "name": "token",
              "type": "address"
            },
            {
              "internalType": "bytes",
              "name": "callData",
              "type": "bytes"
            }
          ],
          "internalType": "struct IZoneCapitalFactory.Order[]",
          "name": "_orders",
          "type": "tuple[]"
        }
      ],
      "name": "destroy",
      "outputs": [],
      "stateMutability": "nonpayable",
      "type": "function"
    },
    {
      "inputs": [
        {
          "internalType": "contract ZoneCapitalNFT",
          "name": "_zoneCapitalNFT",
          "type": "address"
        },
        {
          "internalType": "contract ZoneCapitalHolding",
          "name": "_zoneCapitalHolding",
          "type": "address"
        },
        {
          "internalType": "contract ZoneCapitalPortfolio",
          "name": "_zoneCapitalPortfolio",
          "type": "address"
        },
        {
          "internalType": "contract IWETH",
          "name": "_weth",
          "type": "address"
        },
        {
          "internalType": "address",
          "name": "_operatorResolver",
          "type": "address"
        },
        {
          "internalType": "contract Withdrawer",
          "name": "_withdrawer",
          "type": "address"
        }
      ],
      "name": "initialize",
      "outputs": [],
      "stateMutability": "nonpayable",
      "type": "function"
    },
    {
      "inputs": [],
      "name": "isResolverCached",
      "outputs": [
        {
          "internalType": "bool",
          "name": "",
          "type": "bool"
        }
      ],
      "stateMutability": "view",
      "type": "function"
    },
    {
      "inputs": [],
      "name": "owner",
      "outputs": [
        {
          "internalType": "address",
          "name": "",
          "type": "address"
        }
      ],
      "stateMutability": "view",
      "type": "function"
    },
    {
      "inputs": [],
      "name": "rebuildCache",
      "outputs": [],
      "stateMutability": "nonpayable",
      "type": "function"
    },
    {
      "inputs": [
        {
          "internalType": "bytes32",
          "name": "operator",
          "type": "bytes32"
        }
      ],
      "name": "removeOperator",
      "outputs": [],
      "stateMutability": "nonpayable",
      "type": "function"
    },
    {
      "inputs": [],
      "name": "renounceOwnership",
      "outputs": [],
      "stateMutability": "nonpayable",
      "type": "function"
    },
    {
      "inputs": [],
      "name": "resolver",
      "outputs": [
        {
          "internalType": "contract OperatorResolver",
          "name": "",
          "type": "address"
        }
      ],
      "stateMutability": "view",
      "type": "function"
    },
    {
      "inputs": [],
      "name": "resolverOperatorsRequired",
      "outputs": [
        {
          "internalType": "bytes32[]",
          "name": "",
          "type": "bytes32[]"
        }
      ],
      "stateMutability": "view",
      "type": "function"
    },
    {
      "inputs": [
        {
          "internalType": "address",
          "name": "newOwner",
          "type": "address"
        }
      ],
      "name": "transferOwnership",
      "outputs": [],
      "stateMutability": "nonpayable",
      "type": "function"
    },
    {
      "inputs": [
        {
          "internalType": "contract IERC20Upgradeable",
          "name": "_token",
          "type": "address"
        }
      ],
      "name": "unlockTokens",
      "outputs": [],
      "stateMutability": "nonpayable",
      "type": "function"
    },
    {
      "inputs": [
        {
          "internalType": "uint256",
          "name": "_nftId",
          "type": "uint256"
        },
        {
          "internalType": "uint256",
          "name": "_timestamp",
          "type": "uint256"
        }
      ],
      "name": "updateLockTimestamp",
      "outputs": [],
      "stateMutability": "nonpayable",
      "type": "function"
    },
    {
      "inputs": [],
      "name": "weth",
      "outputs": [
        {
          "internalType": "contract IWETH",
          "name": "",
          "type": "address"
        }
      ],
      "stateMutability": "view",
      "type": "function"
    },
    {
      "inputs": [],
      "name": "zoneCapitalHolding",
      "outputs": [
        {
          "internalType": "contract ZoneCapitalHolding",
          "name": "",
          "type": "address"
        }
      ],
      "stateMutability": "view",
      "type": "function"
    },
    {
      "inputs": [],
      "name": "zoneCapitalNFT",
      "outputs": [
        {
          "internalType": "contract ZoneCapitalNFT",
          "name": "",
          "type": "address"
        }
      ],
      "stateMutability": "view",
      "type": "function"
    },
    {
      "inputs": [],
      "name": "zoneCapitalPortfolio",
      "outputs": [
        {
          "internalType": "contract ZoneCapitalPortfolio",
          "name": "",
          "type": "address"
        }
      ],
      "stateMutability": "view",
      "type": "function"
    },
    {
      "stateMutability": "payable",
      "type": "receive"
    }
  ],
  "bytecode": "0x608060405234801561001057600080fd5b50613f76806100206000396000f3fe60806040526004361061012d5760003560e01c80636f78c7cd116100a5578063a378534b11610074578063cb67f94811610059578063cb67f94814610377578063cc2a9a5b14610397578063f2fde38b146103b757600080fd5b8063a378534b14610344578063bba9b10c1461035757600080fd5b80636f78c7cd146102dc578063715018a6146102fc57806374185360146103115780638da5cb5b1461032657600080fd5b80632e08dc86116100fc57806337f761f3116100e157806337f761f31461027c5780633fc8cef31461029c57806366259e7f146102bc57600080fd5b80632e08dc861461023a578063353cb3fc1461025c57600080fd5b806304f3bcec1461019857806329f9a338146101d55780632af64bd3146101f55780632d80eb7b1461021a57600080fd5b3661019357609d546001600160a01b031633146101915760405162461bcd60e51b815260206004820152601e60248201527f5a43463a204554485f53454e4445525f4e4f545f57495448445241574552000060448201526064015b60405180910390fd5b005b600080fd5b3480156101a457600080fd5b506097546101b8906001600160a01b031681565b6040516001600160a01b0390911681526020015b60405180910390f35b3480156101e157600080fd5b50609b546101b8906001600160a01b031681565b34801561020157600080fd5b5061020a6103d7565b60405190151581526020016101cc565b34801561022657600080fd5b50609a546101b8906001600160a01b031681565b34801561024657600080fd5b5061024f6105cd565b6040516101cc91906136a7565b34801561026857600080fd5b50609c546101b8906001600160a01b031681565b34801561028857600080fd5b506101916102973660046136eb565b610625565b3480156102a857600080fd5b50609e546101b8906001600160a01b031681565b3480156102c857600080fd5b506101916102d736600461370d565b61078a565b3480156102e857600080fd5b506101916102f736600461370d565b610977565b34801561030857600080fd5b50610191610b6f565b34801561031d57600080fd5b50610191610bd5565b34801561033257600080fd5b506065546001600160a01b03166101b8565b610191610352366004613772565b610def565b34801561036357600080fd5b506101916103723660046137d3565b610ffa565b34801561038357600080fd5b5061019161039236600461382f565b61169b565b3480156103a357600080fd5b506101916103b236600461384c565b6117ac565b3480156103c357600080fd5b506101916103d236600461382f565b6119bc565b6000806103e26105cd565b60408051808201909152600080825260208201819052919250604080518082019091526000808252602082015260005b84518110156105c15784818151811061042d5761042d6138ce565b6020908102919091018101516000818152609883526040908190208151808301835290546001600160a01b0380821683527401000000000000000000000000000000000000000090910460e01b7fffffffff00000000000000000000000000000000000000000000000000000000169482019490945260975491517fa96a5f940000000000000000000000000000000000000000000000000000000081526004810184905292975095509091169063a96a5f94906024016040805180830381865afa158015610500573d6000803e3d6000fd5b505050506040513d601f19601f82011682018060405250810190610524919061395d565b835181519193506001600160a01b03918216911614158061058b575082602001517bffffffffffffffffffffffffffffffffffffffffffffffffffffffff191682602001517bffffffffffffffffffffffffffffffffffffffffffffffffffffffff191614155b8061059e575082516001600160a01b0316155b156105af5760009550505050505090565b806105b981613a10565b915050610412565b50600194505050505090565b6060609980548060200260200160405190810160405280929190818152602001828054801561061b57602002820191906000526020600020905b815481526020019060010190808311610607575b5050505050905090565b8133609c546040517f6352211e000000000000000000000000000000000000000000000000000000008152600481018490526001600160a01b039283169290911690636352211e90602401602060405180830381865afa15801561068d573d6000803e3d6000fd5b505050506040513d601f19601f820116820180604052508101906106b19190613a2a565b6001600160a01b0316146107075760405162461bcd60e51b815260206004820152601560248201527f5a43463a2043414c4c45525f4e4f545f4f574e455200000000000000000000006044820152606401610188565b609b546040517f37f761f300000000000000000000000000000000000000000000000000000000815260048101859052602481018490526001600160a01b03909116906337f761f390604401600060405180830381600087803b15801561076d57600080fd5b505af1158015610781573d6000803e3d6000fd5b50505050505050565b6065546001600160a01b031633146107e45760405162461bcd60e51b815260206004820181905260248201527f4f776e61626c653a2063616c6c6572206973206e6f7420746865206f776e65726044820152606401610188565b6099805460005b8181101561092b5783838281548110610806576108066138ce565b906000526020600020015403610919576099610823600184613a47565b81548110610833576108336138ce565b9060005260206000200154838281548110610850576108506138ce565b90600052602060002001819055508280548061086e5761086e613a5e565b6000828152602080822083016000199081018390559092019092558582526098905260409020546001600160a01b0316156108d857600084815260986020526040902080547fffffffffffffffff0000000000000000000000000000000000000000000000001690555b6108e0610bd5565b6040518481527f87ed60f85ca9455ddc75377b551f6e9345e1191987f08d339604ebbd4d274c3c9060200160405180910390a150505050565b8061092381613a10565b9150506107eb565b5060405162461bcd60e51b815260206004820152601a60248201527f5a43463a204e4f4e5f4558495354454e545f4f50455241544f520000000000006044820152606401610188565b50565b6065546001600160a01b031633146109d15760405162461bcd60e51b815260206004820181905260248201527f4f776e61626c653a2063616c6c6572206973206e6f7420746865206f776e65726044820152606401610188565b80610a1e5760405162461bcd60e51b815260206004820152601960248201527f4e463a20494e56414c49445f4f50455241544f525f4e414d45000000000000006044820152606401610188565b60006099805480602002602001604051908101604052809291908181526020018280548015610a6c57602002820191906000526020600020905b815481526020019060010190808311610a58575b5050505050905060005b8151811015610af95782828281518110610a9257610a926138ce565b602002602001015103610ae75760405162461bcd60e51b815260206004820152601560248201527f4e463a204558495354454e545f4f50455241544f5200000000000000000000006044820152606401610188565b80610af181613a10565b915050610a76565b50609980546001810182556000919091527f72a152ddfb8e864297c917af52ea6c1c68aead0fee1a62673fcc7e0c94979d0001829055610b37610bd5565b6040518281527f564472207cf6697287aa046e48d6a90a31d9be632c632a96785adf57c79e6fa4906020015b60405180910390a15050565b6065546001600160a01b03163314610bc95760405162461bcd60e51b815260206004820181905260248201527f4f776e61626c653a2063616c6c6572206973206e6f7420746865206f776e65726044820152606401610188565b610bd36000611a97565b565b6000610bdf6105cd565b6040805180820190915260008082526020820181905291925060005b8351811015610de957838181518110610c1657610c166138ce565b60209081029190910101516097546040517fa96a5f94000000000000000000000000000000000000000000000000000000008152600481018390529194506001600160a01b03169063a96a5f94906024016040805180830381865afa158015610c83573d6000803e3d6000fd5b505050506040513d601f19601f82011682018060405250810190610ca7919061395d565b80519092506001600160a01b031615610d28576000838152609860209081526040909120835181549285015160e01c74010000000000000000000000000000000000000000027fffffffffffffffff0000000000000000000000000000000000000000000000009093166001600160a01b0390911617919091179055610d5d565b600083815260986020526040902080547fffffffffffffffff0000000000000000000000000000000000000000000000001690555b7f69e1d0136d0e0f77c102ce6a83384ad0413744b8b16822ee0ecb9412082fcdc38383604051610dcf92919091825280516001600160a01b031660208084019190915201517fffffffff0000000000000000000000000000000000000000000000000000000016604082015260600190565b60405180910390a180610de181613a10565b915050610bfb565b50505050565b600260015403610e415760405162461bcd60e51b815260206004820152601f60248201527f5265656e7472616e637947756172643a207265656e7472616e742063616c6c006044820152606401610188565b6002600155806000819003610e985760405162461bcd60e51b815260206004820152601960248201527f5a43463a20494e56414c49445f4d554c54495f4f5244455253000000000000006044820152606401610188565b610ea28383611b01565b609c546000906001600160a01b03166340c10f19336040517fffffffff0000000000000000000000000000000000000000000000000000000060e084901b1681526001600160a01b039091166004820152602481018890526044016020604051808303816000875af1158015610f1c573d6000803e3d6000fd5b505050506040513d601f19601f82011682018060405250810190610f409190613a8d565b9050610f65604051806060016040528060348152602001613f0d603491398287611bfe565b60005b82811015610fb457610f9f82868684818110610f8657610f866138ce565b9050602002810190610f989190613aa6565b6000611c73565b50508080610fac90613a10565b915050610f68565b50807fa10c163839af74643ffeacac2e4b265ffd662959c05c2e14335f6942215f944086604051610fe791815260200190565b60405180910390a2505060018055505050565b60026001540361104c5760405162461bcd60e51b815260206004820152601f60248201527f5265656e7472616e637947756172643a207265656e7472616e742063616c6c006044820152606401610188565b60026001558333609c546040517f6352211e000000000000000000000000000000000000000000000000000000008152600481018490526001600160a01b039283169290911690636352211e90602401602060405180830381865afa1580156110b9573d6000803e3d6000fd5b505050506040513d601f19601f820116820180604052508101906110dd9190613a2a565b6001600160a01b0316146111335760405162461bcd60e51b815260206004820152601560248201527f5a43463a2043414c4c45525f4e4f545f4f574e455200000000000000000000006044820152606401610188565b609b546040517fc1efb2ec0000000000000000000000000000000000000000000000000000000081526004810187905286916001600160a01b03169063c1efb2ec90602401602060405180830381865afa158015611195573d6000803e3d6000fd5b505050506040513d601f19601f820116820180604052508101906111b99190613a8d565b42116112075760405162461bcd60e51b815260206004820152600f60248201527f5a43463a204c4f434b45445f4e465400000000000000000000000000000000006044820152606401610188565b609b546040517f4e319b2c000000000000000000000000000000000000000000000000000000008152600481018890526000916001600160a01b031690634e319b2c90602401600060405180830381865afa15801561126a573d6000803e3d6000fd5b505050506040513d6000823e601f3d908101601f191682016040526112929190810190613b7c565b805190915060008590036112e85760405162461bcd60e51b815260206004820152601360248201527f5a43463a20494e56414c49445f4f5244455253000000000000000000000000006044820152606401610188565b8085146113375760405162461bcd60e51b815260206004820152601d60248201527f5a43463a20494e505554535f4c454e4754485f4d5553545f4d415443480000006044820152606401610188565b609a54609b546040517fa554b63e000000000000000000000000000000000000000000000000000000008152600481018b90526001600160a01b03928316929091169063a554b63e90602401602060405180830381865afa1580156113a0573d6000803e3d6000fd5b505050506040513d601f19601f820116820180604052508101906113c49190613a2a565b6001600160a01b03161461141a5760405162461bcd60e51b815260206004820152601560248201527f5a43463a20524553455256455f4d49534d4154434800000000000000000000006044820152606401610188565b6040516370a0823160e01b81523060048201526000906001600160a01b038916906370a0823190602401602060405180830381865afa158015611461573d6000803e3d6000fd5b505050506040513d601f19601f820116820180604052508101906114859190613a8d565b905060005b828110156115035760008482815181106114a6576114a66138ce565b6020026020010151905060006114bc828d611dac565b90506114ee828c838f8e8e898181106114d7576114d76138ce565b90506020028101906114e99190613bb9565b611faa565b505080806114fb90613a10565b91505061148a565b506040516370a0823160e01b815230600482015260009082906001600160a01b038b16906370a0823190602401602060405180830381865afa15801561154d573d6000803e3d6000fd5b505050506040513d601f19601f820116820180604052508101906115719190613a8d565b61157b9190613a47565b905061158889823361206a565b609b546040517fee4739cb000000000000000000000000000000000000000000000000000000008152600481018c90526001600160a01b039091169063ee4739cb90602401600060405180830381600087803b1580156115e757600080fd5b505af11580156115fb573d6000803e3d6000fd5b5050609c546001600160a01b03169150639dc29fac9050336040517fffffffff0000000000000000000000000000000000000000000000000000000060e084901b1681526001600160a01b039091166004820152602481018d9052604401600060405180830381600087803b15801561167357600080fd5b505af1158015611687573d6000803e3d6000fd5b505060018055505050505050505050505050565b6065546001600160a01b031633146116f55760405162461bcd60e51b815260206004820181905260248201527f4f776e61626c653a2063616c6c6572206973206e6f7420746865206f776e65726044820152606401610188565b6040516370a0823160e01b81523060048201526000906001600160a01b038316906370a0823190602401602060405180830381865afa15801561173c573d6000803e3d6000fd5b505050506040513d601f19601f820116820180604052508101906117609190613a8d565b905061176d8233836121bd565b604080516001600160a01b0384168152602081018390527fe7b379c6c1fa169e9079c25e9143b127637eef8ec8c9d5c06ddb4ab3e11958889101610b63565b600054610100900460ff166117c75760005460ff16156117cb565b303b155b61183d5760405162461bcd60e51b815260206004820152602e60248201527f496e697469616c697a61626c653a20636f6e747261637420697320616c72656160448201527f647920696e697469616c697a65640000000000000000000000000000000000006064820152608401610188565b600054610100900460ff1615801561185f576000805461ffff19166101011790555b6001600160a01b0387161580159061187f57506001600160a01b03861615155b801561189357506001600160a01b03851615155b80156118a757506001600160a01b03831615155b80156118bb57506001600160a01b03841615155b80156118cf57506001600160a01b03821615155b61191b5760405162461bcd60e51b815260206004820152601460248201527f5a43463a20494e56414c49445f414444524553530000000000000000000000006044820152606401610188565b61192483612266565b61192c612338565b6119346123bd565b609c80547fffffffffffffffffffffffff00000000000000000000000000000000000000009081166001600160a01b038a811691909117909255609e80548216878416179055609b80548216898416179055609a80548216888416179055609d80549091169184169190911790558015610781576000805461ff001916905550505050505050565b6065546001600160a01b03163314611a165760405162461bcd60e51b815260206004820181905260248201527f4f776e61626c653a2063616c6c6572206973206e6f7420746865206f776e65726044820152606401610188565b6001600160a01b038116611a925760405162461bcd60e51b815260206004820152602660248201527f4f776e61626c653a206e6577206f776e657220697320746865207a65726f206160448201527f64647265737300000000000000000000000000000000000000000000000000006064820152608401610188565b610974815b606580546001600160a01b038381167fffffffffffffffffffffffff0000000000000000000000000000000000000000831681179093556040519116919082907f8be0079c531659141344cd1fd0a4f28419497f9722a3daafe3b4186f6b6457e090600090a35050565b6000805b82811015611ba95773eeeeeeeeeeeeeeeeeeeeeeeeeeeeeeeeeeeeeeee848483818110611b3457611b346138ce565b9050602002810190611b469190613aa6565b611b5490602081019061382f565b6001600160a01b031603611b9757838382818110611b7457611b746138ce565b9050602002810190611b869190613aa6565b611b94906020013583613bed565b91505b80611ba181613a10565b915050611b05565b50803414611bf95760405162461bcd60e51b815260206004820152601460248201527f5a43463a2057524f4e475f4d53475f56414c55450000000000000000000000006044820152606401610188565b505050565b611bf9838383604051602401611c1693929190613c5d565b60408051601f198184030181529190526020810180517bffffffffffffffffffffffffffffffffffffffffffffffffffffffff167f969cdd0300000000000000000000000000000000000000000000000000000000179052612442565b60008080611c846040860186613c82565b9050905080600003611cd85760405162461bcd60e51b815260206004820152601360248201527f5a43463a20494e56414c49445f4f5244455253000000000000000000000000006044820152606401610188565b6000611cf687611ceb602089018961382f565b886020013588612463565b90935090506000805b83811015611da057611d8285611d1860408b018b613c82565b84818110611d2857611d286138ce565b9050602002810190611d3a9190613bb9565b611d4b90604081019060200161382f565b8b611d5960408d018d613c82565b86818110611d6957611d696138ce565b9050602002810190611d7b9190613bb9565b6001612818565b611d8c9083613bed565b915080611d9881613a10565b915050611cff565b50505050935093915050565b609b546040517fad79b546000000000000000000000000000000000000000000000000000000008152600481018390526001600160a01b038481166024830152600092839291169063ad79b54690604401602060405180830381865afa158015611e1a573d6000803e3d6000fd5b505050506040513d601f19601f82011682018060405250810190611e3e9190613a8d565b6040516370a0823160e01b81523060048201529091506000906001600160a01b038616906370a0823190602401602060405180830381865afa158015611e88573d6000803e3d6000fd5b505050506040513d601f19601f82011682018060405250810190611eac9190613a8d565b609a546040517ff3fef3a30000000000000000000000000000000000000000000000000000000081526001600160a01b0388811660048301526024820186905292935091169063f3fef3a390604401600060405180830381600087803b158015611f1557600080fd5b505af1158015611f29573d6000803e3d6000fd5b50506040516370a0823160e01b81523060048201528392506001600160a01b03881691506370a0823190602401602060405180830381865afa158015611f73573d6000803e3d6000fd5b505050506040513d601f19601f82011682018060405250810190611f979190613a8d565b611fa19190613a47565b95945050505050565b600080611fb88388886128cc565b915091508115610781578481600181518110611fd657611fd66138ce565b6020026020010151111561202c5760405162461bcd60e51b815260206004820152600d60248201527f4e463a204f5645525350454e54000000000000000000000000000000000000006044820152606401610188565b600081600181518110612041576120416138ce565b60200260200101518603905080600014612060576120608833836121bd565b5050505050505050565b609e546001600160a01b03908116908416036121b657609e54609d5461209c916001600160a01b039081169116612ad9565b609d546040517f2e1a7d4d000000000000000000000000000000000000000000000000000000008152600481018490526001600160a01b0390911690632e1a7d4d90602401600060405180830381600087803b1580156120fb57600080fd5b505af115801561210f573d6000803e3d6000fd5b505050506000816001600160a01b03168360405160006040518083038185875af1925050503d8060008114612160576040519150601f19603f3d011682016040523d82523d6000602084013e612165565b606091505b5050905080610de95760405162461bcd60e51b815260206004820152601760248201527f5a43463a204554485f5452414e534645525f4552524f520000000000000000006044820152606401610188565b611bf98382845b6040516001600160a01b038316602482015260448101829052611bf99084907fa9059cbb00000000000000000000000000000000000000000000000000000000906064015b60408051601f198184030181529190526020810180517bffffffffffffffffffffffffffffffffffffffffffffffffffffffff167fffffffff0000000000000000000000000000000000000000000000000000000090931692909217909152612b9b565b600054610100900460ff166122815760005460ff1615612285565b303b155b6122f75760405162461bcd60e51b815260206004820152602e60248201527f496e697469616c697a61626c653a20636f6e747261637420697320616c72656160448201527f647920696e697469616c697a65640000000000000000000000000000000000006064820152608401610188565b600054610100900460ff16158015612319576000805461ffff19166101011790555b61232282612c80565b8015612334576000805461ff00191690555b5050565b600054610100900460ff166123b55760405162461bcd60e51b815260206004820152602b60248201527f496e697469616c697a61626c653a20636f6e7472616374206973206e6f74206960448201527f6e697469616c697a696e670000000000000000000000000000000000000000006064820152608401610188565b610bd3612dd1565b600054610100900460ff1661243a5760405162461bcd60e51b815260206004820152602b60248201527f496e697469616c697a61626c653a20636f6e7472616374206973206e6f74206960448201527f6e697469616c697a696e670000000000000000000000000000000000000000006064820152608401610188565b610bd3612e57565b80516a636f6e736f6c652e6c6f67602083016000808483855afa5050505050565b6000807fffffffffffffffffffffffff11111111111111111111111111111111111111126001600160a01b038616016125b45782156124e45760405162461bcd60e51b815260206004820152601a60248201527f5a43463a204e4f5f4554485f46524f4d5f504f5254464f4c494f0000000000006044820152606401610188565b834710156125345760405162461bcd60e51b815260206004820152601660248201527f5a43463a20494e56414c49445f414d4f554e545f494e000000000000000000006044820152606401610188565b609e60009054906101000a90046001600160a01b03166001600160a01b031663d0e30db0856040518263ffffffff1660e01b81526004016000604051808303818588803b15801561258457600080fd5b505af1158015612598573d6000803e3d6000fd5b5050609e546001600160a01b0316945086935061280f92505050565b6040516370a0823160e01b81523060048201526000906001600160a01b038716906370a0823190602401602060405180830381865afa1580156125fb573d6000803e3d6000fd5b505050506040513d601f19601f8201168201806040525081019061261f9190613a8d565b9050831561278757609b546040517fad79b546000000000000000000000000000000000000000000000000000000008152600481018990526001600160a01b0388811660248301528792169063ad79b54690604401602060405180830381865afa158015612691573d6000803e3d6000fd5b505050506040513d601f19601f820116820180604052508101906126b59190613a8d565b10156127035760405162461bcd60e51b815260206004820152601b60248201527f5a43463a20494e53554646494349454e545f414d4f554e545f494e00000000006044820152606401610188565b609a546040517ff3fef3a30000000000000000000000000000000000000000000000000000000081526001600160a01b038881166004830152602482018890529091169063f3fef3a390604401600060405180830381600087803b15801561276a57600080fd5b505af115801561277e573d6000803e3d6000fd5b50505050612793565b61279386333088612eda565b6040516370a0823160e01b8152306004820152869082906001600160a01b038316906370a0823190602401602060405180830381865afa1580156127db573d6000803e3d6000fd5b505050506040513d601f19601f820116820180604052508101906127ff9190613a8d565b6128099190613a47565b92509250505b94509492505050565b60008060006128288589896128cc565b91509150816128795760405162461bcd60e51b815260206004820152601960248201527f5a43463a204f50455241544f525f43414c4c5f4641494c4544000000000000006044820152606401610188565b83156128a4576128a48782600081518110612896576128966138ce565b602002602001015188612f2b565b806001815181106128b7576128b76138ce565b60200260200101519250505095945050505050565b60006060816128db86356130fe565b90506129206040518060400160405280601081526020017f43616c6c206f70657261746f722025730000000000000000000000000000000081525082600001516131e8565b805160208201516060916001600160a01b03169061294160408a018a613cea565b60405160200161295393929190613d4f565b60408051601f198184030181529082905261296d91613d8b565b600060405180830381855af49150503d80600081146129a8576040519150601f19603f3d011682016040523d82523d6000602084013e6129ad565b606091505b5090945090508315612acf576060818060200190518101906129cf9190613d9d565b8092508195505050856001600160a01b0316816000815181106129f4576129f46138ce565b60200260200101516001600160a01b031614612a525760405162461bcd60e51b815260206004820152601960248201527f4d4f523a20494e56414c49445f4f55545055545f544f4b454e000000000000006044820152606401610188565b866001600160a01b031681600181518110612a6f57612a6f6138ce565b60200260200101516001600160a01b031614612acd5760405162461bcd60e51b815260206004820152601860248201527f4d4f523a20494e56414c49445f494e5055545f544f4b454e00000000000000006044820152606401610188565b505b5050935093915050565b6040517fdd62ed3e0000000000000000000000000000000000000000000000000000000081523060048201526001600160a01b0382811660248301526000919084169063dd62ed3e90604401602060405180830381865afa158015612b42573d6000803e3d6000fd5b505050506040513d601f19601f82011682018060405250810190612b669190613a8d565b90506000198114611bf957612b856001600160a01b038416838361325b565b611bf96001600160a01b038416836000196133b4565b6000612bf0826040518060400160405280602081526020017f5361666545524332303a206c6f772d6c6576656c2063616c6c206661696c6564815250856001600160a01b03166134989092919063ffffffff16565b805190915015611bf95780806020019051810190612c0e9190613e59565b611bf95760405162461bcd60e51b815260206004820152602a60248201527f5361666545524332303a204552433230206f7065726174696f6e20646964206e60448201527f6f742073756363656564000000000000000000000000000000000000000000006064820152608401610188565b600054610100900460ff16612c9b5760005460ff1615612c9f565b303b155b612d115760405162461bcd60e51b815260206004820152602e60248201527f496e697469616c697a61626c653a20636f6e747261637420697320616c72656160448201527f647920696e697469616c697a65640000000000000000000000000000000000006064820152608401610188565b600054610100900460ff16158015612d33576000805461ffff19166101011790555b6001600160a01b038216612d895760405162461bcd60e51b815260206004820152601460248201527f4d4f523a20494e56414c49445f414444524553530000000000000000000000006044820152606401610188565b609780547fffffffffffffffffffffffff0000000000000000000000000000000000000000166001600160a01b0384161790558015612334576000805461ff00191690555050565b600054610100900460ff16612e4e5760405162461bcd60e51b815260206004820152602b60248201527f496e697469616c697a61626c653a20636f6e7472616374206973206e6f74206960448201527f6e697469616c697a696e670000000000000000000000000000000000000000006064820152608401610188565b610bd333611a97565b600054610100900460ff16612ed45760405162461bcd60e51b815260206004820152602b60248201527f496e697469616c697a61626c653a20636f6e7472616374206973206e6f74206960448201527f6e697469616c697a696e670000000000000000000000000000000000000000006064820152608401610188565b60018055565b6040516001600160a01b0380851660248301528316604482015260648101829052610de99085907f23b872dd0000000000000000000000000000000000000000000000000000000090608401612202565b609a54604080516060810190915260218082526001600160a01b0390921691612f5e9190613eec602083013984836134b1565b6040516370a0823160e01b81526001600160a01b038281166004830152600091908616906370a0823190602401602060405180830381865afa158015612fa8573d6000803e3d6000fd5b505050506040513d601f19601f82011682018060405250810190612fcc9190613a8d565b9050612fd88583612ad9565b612fe38583866121bd565b6040516370a0823160e01b81526001600160a01b038381166004830152600091908716906370a0823190602401602060405180830381865afa15801561302d573d6000803e3d6000fd5b505050506040513d601f19601f820116820180604052508101906130519190613a8d565b609b549091506001600160a01b0316634671b0e385886130718686613a47565b6040517fffffffff0000000000000000000000000000000000000000000000000000000060e086901b16815260048101939093526001600160a01b039182166024840152604483015286166064820152608401600060405180830381600087803b1580156130de57600080fd5b505af11580156130f2573d6000803e3d6000fd5b50505050505050505050565b60408051808201909152600080825260208201526000828152609860209081526040918290208251808401845290546001600160a01b0381168083527401000000000000000000000000000000000000000090910460e01b7fffffffff00000000000000000000000000000000000000000000000000000000168284015292517f4d4f523a204d495353494e475f4f50455241544f523a20000000000000000000928101929092526037820185905291151590605701604051602081830303815290604052906131e15760405162461bcd60e51b81526004016101889190613e7b565b5092915050565b61233482826040516024016131fe929190613e8e565b60408051601f198184030181529190526020810180517bffffffffffffffffffffffffffffffffffffffffffffffffffffffff167f319af33300000000000000000000000000000000000000000000000000000000179052612442565b6040517fdd62ed3e0000000000000000000000000000000000000000000000000000000081523060048201526001600160a01b0383811660248301526000919085169063dd62ed3e90604401602060405180830381865afa1580156132c4573d6000803e3d6000fd5b505050506040513d601f19601f820116820180604052508101906132e89190613a8d565b9050818110156133605760405162461bcd60e51b815260206004820152602960248201527f5361666545524332303a2064656372656173656420616c6c6f77616e6365206260448201527f656c6f77207a65726f00000000000000000000000000000000000000000000006064820152608401610188565b6040516001600160a01b038416602482015282820360448201819052906133ad9086907f095ea7b30000000000000000000000000000000000000000000000000000000090606401612202565b5050505050565b6040517fdd62ed3e0000000000000000000000000000000000000000000000000000000081523060048201526001600160a01b038381166024830152600091839186169063dd62ed3e90604401602060405180830381865afa15801561341e573d6000803e3d6000fd5b505050506040513d601f19601f820116820180604052508101906134429190613a8d565b61344c9190613bed565b6040516001600160a01b038516602482015260448101829052909150610de99085907f095ea7b30000000000000000000000000000000000000000000000000000000090606401612202565b60606134a78484600085613526565b90505b9392505050565b611bf98383836040516024016134c993929190613eb9565b60408051601f198184030181529190526020810180517bffffffffffffffffffffffffffffffffffffffffffffffffffffffff167fe3849f7900000000000000000000000000000000000000000000000000000000179052612442565b60608247101561359e5760405162461bcd60e51b815260206004820152602660248201527f416464726573733a20696e73756666696369656e742062616c616e636520666f60448201527f722063616c6c00000000000000000000000000000000000000000000000000006064820152608401610188565b6001600160a01b0385163b6135f55760405162461bcd60e51b815260206004820152601d60248201527f416464726573733a2063616c6c20746f206e6f6e2d636f6e74726163740000006044820152606401610188565b600080866001600160a01b031685876040516136119190613d8b565b60006040518083038185875af1925050503d806000811461364e576040519150601f19603f3d011682016040523d82523d6000602084013e613653565b606091505b509150915061366382828661366e565b979650505050505050565b6060831561367d5750816134aa565b82511561368d5782518084602001fd5b8160405162461bcd60e51b81526004016101889190613e7b565b6020808252825182820181905260009190848201906040850190845b818110156136df578351835292840192918401916001016136c3565b50909695505050505050565b600080604083850312156136fe57600080fd5b50508035926020909101359150565b60006020828403121561371f57600080fd5b5035919050565b60008083601f84011261373857600080fd5b50813567ffffffffffffffff81111561375057600080fd5b6020830191508360208260051b850101111561376b57600080fd5b9250929050565b60008060006040848603121561378757600080fd5b83359250602084013567ffffffffffffffff8111156137a557600080fd5b6137b186828701613726565b9497909650939450505050565b6001600160a01b038116811461097457600080fd5b600080600080606085870312156137e957600080fd5b8435935060208501356137fb816137be565b9250604085013567ffffffffffffffff81111561381757600080fd5b61382387828801613726565b95989497509550505050565b60006020828403121561384157600080fd5b81356134aa816137be565b60008060008060008060c0878903121561386557600080fd5b8635613870816137be565b95506020870135613880816137be565b94506040870135613890816137be565b935060608701356138a0816137be565b925060808701356138b0816137be565b915060a08701356138c0816137be565b809150509295509295509295565b7f4e487b7100000000000000000000000000000000000000000000000000000000600052603260045260246000fd5b7f4e487b7100000000000000000000000000000000000000000000000000000000600052604160045260246000fd5b604051601f8201601f1916810167ffffffffffffffff81118282101715613955576139556138fd565b604052919050565b60006040828403121561396f57600080fd5b6040516040810181811067ffffffffffffffff82111715613992576139926138fd565b60405282516139a0816137be565b815260208301517fffffffff00000000000000000000000000000000000000000000000000000000811681146139d557600080fd5b60208201529392505050565b7f4e487b7100000000000000000000000000000000000000000000000000000000600052601160045260246000fd5b60006000198203613a2357613a236139e1565b5060010190565b600060208284031215613a3c57600080fd5b81516134aa816137be565b600082821015613a5957613a596139e1565b500390565b7f4e487b7100000000000000000000000000000000000000000000000000000000600052603160045260246000fd5b600060208284031215613a9f57600080fd5b5051919050565b600082357fffffffffffffffffffffffffffffffffffffffffffffffffffffffffffffff81833603018112613ada57600080fd5b9190910192915050565b600067ffffffffffffffff821115613afe57613afe6138fd565b5060051b60200190565b600082601f830112613b1957600080fd5b81516020613b2e613b2983613ae4565b61392c565b82815260059290921b84018101918181019086841115613b4d57600080fd5b8286015b84811015613b71578051613b64816137be565b8352918301918301613b51565b509695505050505050565b600060208284031215613b8e57600080fd5b815167ffffffffffffffff811115613ba557600080fd5b613bb184828501613b08565b949350505050565b600082357fffffffffffffffffffffffffffffffffffffffffffffffffffffffffffffffa1833603018112613ada57600080fd5b60008219821115613c0057613c006139e1565b500190565b60005b83811015613c20578181015183820152602001613c08565b83811115610de95750506000910152565b60008151808452613c49816020860160208601613c05565b601f01601f19169290920160200192915050565b606081526000613c706060830186613c31565b60208301949094525060400152919050565b60008083357fffffffffffffffffffffffffffffffffffffffffffffffffffffffffffffffe1843603018112613cb757600080fd5b83018035915067ffffffffffffffff821115613cd257600080fd5b6020019150600581901b360382131561376b57600080fd5b60008083357fffffffffffffffffffffffffffffffffffffffffffffffffffffffffffffffe1843603018112613d1f57600080fd5b83018035915067ffffffffffffffff821115613d3a57600080fd5b60200191503681900382131561376b57600080fd5b7fffffffff0000000000000000000000000000000000000000000000000000000084168152818360048301376000910160040190815292915050565b60008251613ada818460208701613c05565b60008060408385031215613db057600080fd5b825167ffffffffffffffff80821115613dc857600080fd5b818501915085601f830112613ddc57600080fd5b81516020613dec613b2983613ae4565b82815260059290921b84018101918181019089841115613e0b57600080fd5b948201945b83861015613e2957855182529482019490820190613e10565b91880151919650909350505080821115613e4257600080fd5b50613e4f85828601613b08565b9150509250929050565b600060208284031215613e6b57600080fd5b815180151581146134aa57600080fd5b6020815260006134aa6020830184613c31565b604081526000613ea16040830185613c31565b90506001600160a01b03831660208301529392505050565b606081526000613ecc6060830186613c31565b90508360208301526001600160a01b038316604083015294935050505056fe5472616e7366657220257320746f6b656e20746f20706f7274666f6c696f202573437265617465642061206e6577204e4654207769746820696420257320616e64206f726967696e616c546f6b656e49643a202573a26469706673582212209ba8b74eb65f53d9bc1b546d015cc04ab8ea8b7cb3861049ed5ac19e7b5fd4e064736f6c634300080d0033",
  "linkReferences": {},
  "deployedLinkReferences": {}
}